{
	"_format": "hh-sol-artifact-1",
	"contractName": "Affiliate",
	"sourceName": "contracts/Affiliate.sol",
	"abi": [
		{
			"inputs": [],
			"stateMutability": "nonpayable",
			"type": "constructor"
		},
		{
			"anonymous": false,
			"inputs": [
				{
					"indexed": true,
					"internalType": "bytes32",
					"name": "role",
					"type": "bytes32"
				},
				{
					"indexed": true,
					"internalType": "bytes32",
					"name": "previousAdminRole",
					"type": "bytes32"
				},
				{
					"indexed": true,
					"internalType": "bytes32",
					"name": "newAdminRole",
					"type": "bytes32"
				}
			],
			"name": "RoleAdminChanged",
			"type": "event"
		},
		{
			"anonymous": false,
			"inputs": [
				{
					"indexed": true,
					"internalType": "bytes32",
					"name": "role",
					"type": "bytes32"
				},
				{
					"indexed": true,
					"internalType": "address",
					"name": "account",
					"type": "address"
				},
				{
					"indexed": true,
					"internalType": "address",
					"name": "sender",
					"type": "address"
				}
			],
			"name": "RoleGranted",
			"type": "event"
		},
		{
			"anonymous": false,
			"inputs": [
				{
					"indexed": true,
					"internalType": "bytes32",
					"name": "role",
					"type": "bytes32"
				},
				{
					"indexed": true,
					"internalType": "address",
					"name": "account",
					"type": "address"
				},
				{
					"indexed": true,
					"internalType": "address",
					"name": "sender",
					"type": "address"
				}
			],
			"name": "RoleRevoked",
			"type": "event"
		},
		{
			"inputs": [],
			"name": "AFFILIATED",
			"outputs": [
				{
					"internalType": "bytes32",
					"name": "",
					"type": "bytes32"
				}
			],
			"stateMutability": "view",
			"type": "function"
		},
		{
			"inputs": [],
			"name": "AFFILIATED_REFERRED",
			"outputs": [
				{
					"internalType": "bytes32",
					"name": "",
					"type": "bytes32"
				}
			],
			"stateMutability": "view",
			"type": "function"
		},
		{
			"inputs": [],
			"name": "AFFILIATE_ADMIN",
			"outputs": [
				{
					"internalType": "bytes32",
					"name": "",
					"type": "bytes32"
				}
			],
			"stateMutability": "view",
			"type": "function"
		},
		{
			"inputs": [],
			"name": "DEFAULT_ADMIN_ROLE",
			"outputs": [
				{
					"internalType": "bytes32",
					"name": "",
					"type": "bytes32"
				}
			],
			"stateMutability": "view",
			"type": "function"
		},
		{
			"inputs": [
				{
					"internalType": "address",
					"name": "account",
					"type": "address"
				}
			],
			"name": "addAffiliateAdmin",
			"outputs": [],
			"stateMutability": "nonpayable",
			"type": "function"
		},
		{
			"inputs": [
				{
					"internalType": "address",
					"name": "account",
					"type": "address"
				}
			],
			"name": "addAffiliated",
			"outputs": [],
			"stateMutability": "nonpayable",
			"type": "function"
		},
		{
			"inputs": [
				{
					"internalType": "address",
					"name": "referredAddress",
					"type": "address"
				},
				{
					"internalType": "address",
					"name": "affiliateAddress",
					"type": "address"
				}
			],
			"name": "addAffiliatedReferred",
			"outputs": [],
			"stateMutability": "nonpayable",
			"type": "function"
		},
		{
			"inputs": [
				{
					"internalType": "bytes32",
					"name": "role",
					"type": "bytes32"
				}
			],
			"name": "getRoleAdmin",
			"outputs": [
				{
					"internalType": "bytes32",
					"name": "",
					"type": "bytes32"
				}
			],
			"stateMutability": "view",
			"type": "function"
		},
		{
			"inputs": [],
			"name": "getWhoAffiliate",
			"outputs": [
				{
					"internalType": "address",
					"name": "",
					"type": "address"
				}
			],
			"stateMutability": "view",
			"type": "function"
		},
		{
			"inputs": [
				{
					"internalType": "address",
					"name": "affiliate",
					"type": "address"
				}
			],
			"name": "getWhoReferred",
			"outputs": [
				{
					"internalType": "address",
					"name": "",
					"type": "address"
				}
			],
			"stateMutability": "view",
			"type": "function"
		},
		{
			"inputs": [
				{
					"internalType": "bytes32",
					"name": "role",
					"type": "bytes32"
				},
				{
					"internalType": "address",
					"name": "account",
					"type": "address"
				}
			],
			"name": "grantRole",
			"outputs": [],
			"stateMutability": "nonpayable",
			"type": "function"
		},
		{
			"inputs": [
				{
					"internalType": "bytes32",
					"name": "role",
					"type": "bytes32"
				},
				{
					"internalType": "address",
					"name": "account",
					"type": "address"
				}
			],
			"name": "hasRole",
			"outputs": [
				{
					"internalType": "bool",
					"name": "",
					"type": "bool"
				}
			],
			"stateMutability": "view",
			"type": "function"
		},
		{
			"inputs": [
				{
					"internalType": "address",
					"name": "account",
					"type": "address"
				}
			],
			"name": "isAffiliateAdmin",
			"outputs": [
				{
					"internalType": "bool",
					"name": "",
					"type": "bool"
				}
			],
			"stateMutability": "view",
			"type": "function"
		},
		{
			"inputs": [
				{
					"internalType": "address",
					"name": "account",
					"type": "address"
				}
			],
			"name": "isAffiliated",
			"outputs": [
				{
					"internalType": "bool",
					"name": "",
					"type": "bool"
				}
			],
			"stateMutability": "view",
			"type": "function"
		},
		{
			"inputs": [
				{
					"internalType": "address",
					"name": "referredAddress",
					"type": "address"
				}
			],
			"name": "isReferred",
			"outputs": [
				{
					"internalType": "bool",
					"name": "",
					"type": "bool"
				}
			],
			"stateMutability": "view",
			"type": "function"
		},
		{
			"inputs": [
				{
					"internalType": "address",
					"name": "account",
					"type": "address"
				}
			],
			"name": "removeAffiliateAdmin",
			"outputs": [],
			"stateMutability": "nonpayable",
			"type": "function"
		},
		{
			"inputs": [
				{
					"internalType": "address",
					"name": "account",
					"type": "address"
				}
			],
			"name": "removeAffiliated",
			"outputs": [],
			"stateMutability": "nonpayable",
			"type": "function"
		},
		{
			"inputs": [
				{
					"internalType": "address",
					"name": "referredAddress",
					"type": "address"
				}
			],
			"name": "removeAffiliatedReferred",
			"outputs": [],
			"stateMutability": "nonpayable",
			"type": "function"
		},
		{
			"inputs": [
				{
					"internalType": "bytes32",
					"name": "role",
					"type": "bytes32"
				},
				{
					"internalType": "address",
					"name": "account",
					"type": "address"
				}
			],
			"name": "renounceRole",
			"outputs": [],
			"stateMutability": "nonpayable",
			"type": "function"
		},
		{
			"inputs": [
				{
					"internalType": "bytes32",
					"name": "role",
					"type": "bytes32"
				},
				{
					"internalType": "address",
					"name": "account",
					"type": "address"
				}
			],
			"name": "revokeRole",
			"outputs": [],
			"stateMutability": "nonpayable",
			"type": "function"
		},
		{
			"inputs": [
				{
					"internalType": "bytes4",
					"name": "interfaceId",
					"type": "bytes4"
				}
			],
			"name": "supportsInterface",
			"outputs": [
				{
					"internalType": "bool",
					"name": "",
					"type": "bool"
				}
			],
			"stateMutability": "view",
			"type": "function"
		},
		{
			"inputs": [
				{
					"internalType": "address",
					"name": "",
					"type": "address"
				}
			],
			"name": "whoReferred",
			"outputs": [
				{
					"internalType": "address",
					"name": "",
					"type": "address"
				}
			],
			"stateMutability": "view",
			"type": "function"
		}
	],
	"bytecode": "0x60806040523480156200001157600080fd5b50620000447f4837f1f7ab0115b59d6f7e4720788533dc74192c893d8a523e31246c01106184806200012060201b60201c565b620000967f20cd65299650405b034154b3a468a89628c8bb752147de9cd8be7f890c2d91a57f4837f1f7ab0115b59d6f7e4720788533dc74192c893d8a523e31246c011061846200012060201b60201c565b620000e87fab820001d10112c1c630c12da8425409874206ec48d6fa434bf8bc9f1961444d7f4837f1f7ab0115b59d6f7e4720788533dc74192c893d8a523e31246c011061846200012060201b60201c565b6200011a7f4837f1f7ab0115b59d6f7e4720788533dc74192c893d8a523e31246c01106184336200018360201b60201c565b6200031b565b600062000133836200019960201b60201c565b905081600080858152602001908152602001600020600101819055508181847fbd79b86ffe0ab8e8776151514217cd7cacd52c909f66475c3af44e129f0b00ff60405160405180910390a4505050565b620001958282620001b860201b60201c565b5050565b6000806000838152602001908152602001600020600101549050919050565b620001ca8282620002a960201b60201c565b620002a557600160008084815260200190815260200160002060000160008373ffffffffffffffffffffffffffffffffffffffff1673ffffffffffffffffffffffffffffffffffffffff16815260200190815260200160002060006101000a81548160ff0219169083151502179055506200024a6200031360201b60201c565b73ffffffffffffffffffffffffffffffffffffffff168173ffffffffffffffffffffffffffffffffffffffff16837f2f8788117e7eff1d82e926ec794901d17c78024a50270940304540a733656f0d60405160405180910390a45b5050565b600080600084815260200190815260200160002060000160008373ffffffffffffffffffffffffffffffffffffffff1673ffffffffffffffffffffffffffffffffffffffff16815260200190815260200160002060009054906101000a900460ff16905092915050565b600033905090565b611c8e806200032b6000396000f3fe608060405234801561001057600080fd5b50600436106101425760003560e01c8063632b9e88116100b8578063a217fddf1161007c578063a217fddf14610383578063b1382b1d146103a1578063b26709dc146103bf578063d547741f146103dd578063f0bc6cfb146103f9578063f89792421461042957610142565b8063632b9e88146102cf5780637c36619e146102eb578063878f91141461030757806391d14854146103235780639ab102ac1461035357610142565b8063248a9ca31161010a578063248a9ca3146101e95780632871d19b146102195780632f2ff15d14610237578063312ef39d1461025357806336568abe146102835780634f8999f21461029f57610142565b806301ffc9a71461014757806302ee24ce14610177578063140660f3146101935780631ae83558146101af5780631d397f44146101cb575b600080fd5b610161600480360381019061015c91906113fd565b610459565b60405161016e9190611445565b60405180910390f35b610191600480360381019061018c91906114be565b6104d3565b005b6101ad60048036038101906101a891906114be565b610569565b005b6101c960048036038101906101c491906114be565b610668565b005b6101d36107c9565b6040516101e09190611504565b60405180910390f35b61020360048036038101906101fe919061154b565b6107ed565b6040516102109190611504565b60405180910390f35b61022161080c565b60405161022e9190611504565b60405180910390f35b610251600480360381019061024c9190611578565b610830565b005b61026d600480360381019061026891906114be565b610851565b60405161027a9190611445565b60405180910390f35b61029d60048036038101906102989190611578565b610884565b005b6102b960048036038101906102b491906114be565b610907565b6040516102c691906115c7565b60405180910390f35b6102e960048036038101906102e491906115e2565b610970565b005b610305600480360381019061030091906114be565b610b1f565b005b610321600480360381019061031c91906114be565b610bb5565b005b61033d60048036038101906103389190611578565b610cb5565b60405161034a9190611445565b60405180910390f35b61036d600480360381019061036891906114be565b610d1f565b60405161037a9190611445565b60405180910390f35b61038b610d52565b6040516103989190611504565b60405180910390f35b6103a9610d59565b6040516103b69190611504565b60405180910390f35b6103c7610d7d565b6040516103d491906115c7565b60405180910390f35b6103f760048036038101906103f29190611578565b610de4565b005b610413600480360381019061040e91906114be565b610e05565b6040516104209190611445565b60405180910390f35b610443600480360381019061043e91906114be565b610e38565b60405161045091906115c7565b60405180910390f35b60007f7965db0b000000000000000000000000000000000000000000000000000000007bffffffffffffffffffffffffffffffffffffffffffffffffffffffff1916827bffffffffffffffffffffffffffffffffffffffffffffffffffffffff191614806104cc57506104cb82610e6b565b5b9050919050565b6104fd7f4837f1f7ab0115b59d6f7e4720788533dc74192c893d8a523e31246c0110618433610cb5565b61053c576040517f08c379a00000000000000000000000000000000000000000000000000000000081526004016105339061167f565b60405180910390fd5b6105667f4837f1f7ab0115b59d6f7e4720788533dc74192c893d8a523e31246c0110618482610830565b50565b6105937f4837f1f7ab0115b59d6f7e4720788533dc74192c893d8a523e31246c0110618433610cb5565b6105d2576040517f08c379a00000000000000000000000000000000000000000000000000000000081526004016105c99061167f565b60405180910390fd5b6105fc7f20cd65299650405b034154b3a468a89628c8bb752147de9cd8be7f890c2d91a582610cb5565b61063b576040517f08c379a0000000000000000000000000000000000000000000000000000000008152600401610632906116eb565b60405180910390fd5b6106657f20cd65299650405b034154b3a468a89628c8bb752147de9cd8be7f890c2d91a582610de4565b50565b6106927f4837f1f7ab0115b59d6f7e4720788533dc74192c893d8a523e31246c0110618433610cb5565b6106d1576040517f08c379a00000000000000000000000000000000000000000000000000000000081526004016106c89061167f565b60405180910390fd5b6106fb7fab820001d10112c1c630c12da8425409874206ec48d6fa434bf8bc9f1961444d82610cb5565b61073a576040517f08c379a000000000000000000000000000000000000000000000000000000000815260040161073190611757565b60405180910390fd5b6107647fab820001d10112c1c630c12da8425409874206ec48d6fa434bf8bc9f1961444d82610de4565b600160008273ffffffffffffffffffffffffffffffffffffffff1673ffffffffffffffffffffffffffffffffffffffff16815260200190815260200160002060006101000a81549073ffffffffffffffffffffffffffffffffffffffff021916905550565b7f20cd65299650405b034154b3a468a89628c8bb752147de9cd8be7f890c2d91a581565b6000806000838152602001908152602001600020600101549050919050565b7f4837f1f7ab0115b59d6f7e4720788533dc74192c893d8a523e31246c0110618481565b610839826107ed565b61084281610ed5565b61084c8383610ee9565b505050565b600061087d7f4837f1f7ab0115b59d6f7e4720788533dc74192c893d8a523e31246c0110618483610cb5565b9050919050565b61088c610fc9565b73ffffffffffffffffffffffffffffffffffffffff168173ffffffffffffffffffffffffffffffffffffffff16146108f9576040517f08c379a00000000000000000000000000000000000000000000000000000000081526004016108f0906117e9565b60405180910390fd5b6109038282610fd1565b5050565b6000600160008373ffffffffffffffffffffffffffffffffffffffff1673ffffffffffffffffffffffffffffffffffffffff16815260200190815260200160002060009054906101000a900473ffffffffffffffffffffffffffffffffffffffff169050919050565b61099a7f4837f1f7ab0115b59d6f7e4720788533dc74192c893d8a523e31246c0110618433610cb5565b6109d9576040517f08c379a00000000000000000000000000000000000000000000000000000000081526004016109d09061167f565b60405180910390fd5b610a037f20cd65299650405b034154b3a468a89628c8bb752147de9cd8be7f890c2d91a582610cb5565b80610a345750610a337fab820001d10112c1c630c12da8425409874206ec48d6fa434bf8bc9f1961444d82610cb5565b5b610a73576040517f08c379a0000000000000000000000000000000000000000000000000000000008152600401610a6a9061187b565b60405180910390fd5b610a9d7fab820001d10112c1c630c12da8425409874206ec48d6fa434bf8bc9f1961444d83610830565b80600160008473ffffffffffffffffffffffffffffffffffffffff1673ffffffffffffffffffffffffffffffffffffffff16815260200190815260200160002060006101000a81548173ffffffffffffffffffffffffffffffffffffffff021916908373ffffffffffffffffffffffffffffffffffffffff1602179055505050565b610b497f4837f1f7ab0115b59d6f7e4720788533dc74192c893d8a523e31246c0110618433610cb5565b610b88576040517f08c379a0000000000000000000000000000000000000000000000000000000008152600401610b7f9061167f565b60405180910390fd5b610bb27f4837f1f7ab0115b59d6f7e4720788533dc74192c893d8a523e31246c0110618482610de4565b50565b610bdf7f4837f1f7ab0115b59d6f7e4720788533dc74192c893d8a523e31246c0110618433610cb5565b610c1e576040517f08c379a0000000000000000000000000000000000000000000000000000000008152600401610c159061167f565b60405180910390fd5b610c487f20cd65299650405b034154b3a468a89628c8bb752147de9cd8be7f890c2d91a582610cb5565b15610c88576040517f08c379a0000000000000000000000000000000000000000000000000000000008152600401610c7f906118e7565b60405180910390fd5b610cb27f20cd65299650405b034154b3a468a89628c8bb752147de9cd8be7f890c2d91a582610830565b50565b600080600084815260200190815260200160002060000160008373ffffffffffffffffffffffffffffffffffffffff1673ffffffffffffffffffffffffffffffffffffffff16815260200190815260200160002060009054906101000a900460ff16905092915050565b6000610d4b7f20cd65299650405b034154b3a468a89628c8bb752147de9cd8be7f890c2d91a583610cb5565b9050919050565b6000801b81565b7fab820001d10112c1c630c12da8425409874206ec48d6fa434bf8bc9f1961444d81565b6000600160003373ffffffffffffffffffffffffffffffffffffffff1673ffffffffffffffffffffffffffffffffffffffff16815260200190815260200160002060009054906101000a900473ffffffffffffffffffffffffffffffffffffffff16905090565b610ded826107ed565b610df681610ed5565b610e008383610fd1565b505050565b6000610e317fab820001d10112c1c630c12da8425409874206ec48d6fa434bf8bc9f1961444d83610cb5565b9050919050565b60016020528060005260406000206000915054906101000a900473ffffffffffffffffffffffffffffffffffffffff1681565b60007f01ffc9a7000000000000000000000000000000000000000000000000000000007bffffffffffffffffffffffffffffffffffffffffffffffffffffffff1916827bffffffffffffffffffffffffffffffffffffffffffffffffffffffff1916149050919050565b610ee681610ee1610fc9565b6110b2565b50565b610ef38282610cb5565b610fc557600160008084815260200190815260200160002060000160008373ffffffffffffffffffffffffffffffffffffffff1673ffffffffffffffffffffffffffffffffffffffff16815260200190815260200160002060006101000a81548160ff021916908315150217905550610f6a610fc9565b73ffffffffffffffffffffffffffffffffffffffff168173ffffffffffffffffffffffffffffffffffffffff16837f2f8788117e7eff1d82e926ec794901d17c78024a50270940304540a733656f0d60405160405180910390a45b5050565b600033905090565b610fdb8282610cb5565b156110ae57600080600084815260200190815260200160002060000160008373ffffffffffffffffffffffffffffffffffffffff1673ffffffffffffffffffffffffffffffffffffffff16815260200190815260200160002060006101000a81548160ff021916908315150217905550611053610fc9565b73ffffffffffffffffffffffffffffffffffffffff168173ffffffffffffffffffffffffffffffffffffffff16837ff6391f5c32d9c69d2a47ea670b442974b53935d1edc7fd64eb21e047a839171b60405160405180910390a45b5050565b6110bc8282610cb5565b611133576110c981611137565b6110d78360001c6020611164565b6040516020016110e8929190611a10565b6040516020818303038152906040526040517f08c379a000000000000000000000000000000000000000000000000000000000815260040161112a9190611a94565b60405180910390fd5b5050565b606061115d8273ffffffffffffffffffffffffffffffffffffffff16601460ff16611164565b9050919050565b6060600060028360026111779190611aef565b6111819190611b31565b67ffffffffffffffff81111561119a57611199611b65565b5b6040519080825280601f01601f1916602001820160405280156111cc5781602001600182028036833780820191505090505b5090507f30000000000000000000000000000000000000000000000000000000000000008160008151811061120457611203611b94565b5b60200101907effffffffffffffffffffffffffffffffffffffffffffffffffffffffffffff1916908160001a9053507f78000000000000000000000000000000000000000000000000000000000000008160018151811061126857611267611b94565b5b60200101907effffffffffffffffffffffffffffffffffffffffffffffffffffffffffffff1916908160001a905350600060018460026112a89190611aef565b6112b29190611b31565b90505b6001811115611352577f3031323334353637383961626364656600000000000000000000000000000000600f8616601081106112f4576112f3611b94565b5b1a60f81b82828151811061130b5761130a611b94565b5b60200101907effffffffffffffffffffffffffffffffffffffffffffffffffffffffffffff1916908160001a905350600485901c94508061134b90611bc3565b90506112b5565b5060008414611396576040517f08c379a000000000000000000000000000000000000000000000000000000000815260040161138d90611c38565b60405180910390fd5b8091505092915050565b600080fd5b60007fffffffff0000000000000000000000000000000000000000000000000000000082169050919050565b6113da816113a5565b81146113e557600080fd5b50565b6000813590506113f7816113d1565b92915050565b600060208284031215611413576114126113a0565b5b6000611421848285016113e8565b91505092915050565b60008115159050919050565b61143f8161142a565b82525050565b600060208201905061145a6000830184611436565b92915050565b600073ffffffffffffffffffffffffffffffffffffffff82169050919050565b600061148b82611460565b9050919050565b61149b81611480565b81146114a657600080fd5b50565b6000813590506114b881611492565b92915050565b6000602082840312156114d4576114d36113a0565b5b60006114e2848285016114a9565b91505092915050565b6000819050919050565b6114fe816114eb565b82525050565b600060208201905061151960008301846114f5565b92915050565b611528816114eb565b811461153357600080fd5b50565b6000813590506115458161151f565b92915050565b600060208284031215611561576115606113a0565b5b600061156f84828501611536565b91505092915050565b6000806040838503121561158f5761158e6113a0565b5b600061159d85828601611536565b92505060206115ae858286016114a9565b9150509250929050565b6115c181611480565b82525050565b60006020820190506115dc60008301846115b8565b92915050565b600080604083850312156115f9576115f86113a0565b5b6000611607858286016114a9565b9250506020611618858286016114a9565b9150509250929050565b600082825260208201905092915050565b7f43616c6c6572206973206e6f7420616e20616666696c696174652061646d696e600082015250565b6000611669602083611622565b915061167482611633565b602082019050919050565b600060208201905081810360008301526116988161165c565b9050919050565b7f4163636f756e74206973206e6f7420616666696c696174656400000000000000600082015250565b60006116d5601983611622565b91506116e08261169f565b602082019050919050565b60006020820190508181036000830152611704816116c8565b9050919050565b7f52656665727265642061646472657373206973206e6f74207265666572726564600082015250565b6000611741602083611622565b915061174c8261170b565b602082019050919050565b6000602082019050818103600083015261177081611734565b9050919050565b7f416363657373436f6e74726f6c3a2063616e206f6e6c792072656e6f756e636560008201527f20726f6c657320666f722073656c660000000000000000000000000000000000602082015250565b60006117d3602f83611622565b91506117de82611777565b604082019050919050565b60006020820190508181036000830152611802816117c6565b9050919050565b7f416666696c696174652061646472657373206973206e6f7420616666696c696160008201527f7465640000000000000000000000000000000000000000000000000000000000602082015250565b6000611865602383611622565b915061187082611809565b604082019050919050565b6000602082019050818103600083015261189481611858565b9050919050565b7f4163636f756e7420697320616c726561647920616666696c6961746564000000600082015250565b60006118d1601d83611622565b91506118dc8261189b565b602082019050919050565b60006020820190508181036000830152611900816118c4565b9050919050565b600081905092915050565b7f416363657373436f6e74726f6c3a206163636f756e7420000000000000000000600082015250565b6000611948601783611907565b915061195382611912565b601782019050919050565b600081519050919050565b60005b8381101561198757808201518184015260208101905061196c565b60008484015250505050565b600061199e8261195e565b6119a88185611907565b93506119b8818560208601611969565b80840191505092915050565b7f206973206d697373696e6720726f6c6520000000000000000000000000000000600082015250565b60006119fa601183611907565b9150611a05826119c4565b601182019050919050565b6000611a1b8261193b565b9150611a278285611993565b9150611a32826119ed565b9150611a3e8284611993565b91508190509392505050565b6000601f19601f8301169050919050565b6000611a668261195e565b611a708185611622565b9350611a80818560208601611969565b611a8981611a4a565b840191505092915050565b60006020820190508181036000830152611aae8184611a5b565b905092915050565b6000819050919050565b7f4e487b7100000000000000000000000000000000000000000000000000000000600052601160045260246000fd5b6000611afa82611ab6565b9150611b0583611ab6565b9250828202611b1381611ab6565b91508282048414831517611b2a57611b29611ac0565b5b5092915050565b6000611b3c82611ab6565b9150611b4783611ab6565b9250828201905080821115611b5f57611b5e611ac0565b5b92915050565b7f4e487b7100000000000000000000000000000000000000000000000000000000600052604160045260246000fd5b7f4e487b7100000000000000000000000000000000000000000000000000000000600052603260045260246000fd5b6000611bce82611ab6565b915060008203611be157611be0611ac0565b5b600182039050919050565b7f537472696e67733a20686578206c656e67746820696e73756666696369656e74600082015250565b6000611c22602083611622565b9150611c2d82611bec565b602082019050919050565b60006020820190508181036000830152611c5181611c15565b905091905056fea264697066735822122025bf2b1e91d117e1a7b2d48ea103bd5b91777d6de5cf85a7322c83ad1fd647c764736f6c63430008120033",
	"linkReferences": {},
	"deployedLinkReferences": {}
}