{
	"_format": "hh-sol-artifact-1",
	"contractName": "CrazyFlip",
	"sourceName": "contracts/CrazyFlip.sol",
	"abi": [
		{
			"inputs": [
				{
					"internalType": "address",
					"name": "affiliateAddress",
					"type": "address"
				}
			],
			"stateMutability": "payable",
			"type": "constructor"
		},
		{
			"anonymous": false,
			"inputs": [
				{
					"indexed": true,
					"internalType": "address",
					"name": "from",
					"type": "address"
				},
				{
					"indexed": true,
					"internalType": "address",
					"name": "to",
					"type": "address"
				}
			],
			"name": "OwnershipTransferRequested",
			"type": "event"
		},
		{
			"anonymous": false,
			"inputs": [
				{
					"indexed": true,
					"internalType": "address",
					"name": "from",
					"type": "address"
				},
				{
					"indexed": true,
					"internalType": "address",
					"name": "to",
					"type": "address"
				}
			],
			"name": "OwnershipTransferred",
			"type": "event"
		},
		{
			"anonymous": false,
			"inputs": [
				{
					"indexed": true,
					"internalType": "address",
					"name": "player",
					"type": "address"
				},
				{
					"indexed": false,
					"internalType": "bool",
					"name": "victory",
					"type": "bool"
				},
				{
					"indexed": true,
					"internalType": "uint256",
					"name": "amount",
					"type": "uint256"
				},
				{
					"indexed": false,
					"internalType": "uint256",
					"name": "betAmount",
					"type": "uint256"
				},
				{
					"indexed": false,
					"internalType": "uint256",
					"name": "timestamp",
					"type": "uint256"
				},
				{
					"indexed": false,
					"internalType": "uint256",
					"name": "requestId",
					"type": "uint256"
				},
				{
					"indexed": false,
					"internalType": "uint256[]",
					"name": "randomWords",
					"type": "uint256[]"
				}
			],
			"name": "RequestFulfilled",
			"type": "event"
		},
		{
			"inputs": [],
			"name": "acceptOwnership",
			"outputs": [],
			"stateMutability": "nonpayable",
			"type": "function"
		},
		{
			"inputs": [
				{
					"internalType": "uint256",
					"name": "_betChoice",
					"type": "uint256"
				},
				{
					"internalType": "address",
					"name": "tokenAddress",
					"type": "address"
				},
				{
					"internalType": "address",
					"name": "affiliate",
					"type": "address"
				},
				{
					"internalType": "uint256",
					"name": "betAmount",
					"type": "uint256"
				},
				{
					"internalType": "bool",
					"name": "mainnet",
					"type": "bool"
				}
			],
			"name": "bet",
			"outputs": [],
			"stateMutability": "payable",
			"type": "function"
		},
		{
			"inputs": [
				{
					"internalType": "address",
					"name": "tokenAddress",
					"type": "address"
				}
			],
			"name": "enableToken",
			"outputs": [],
			"stateMutability": "nonpayable",
			"type": "function"
		},
		{
			"inputs": [
				{
					"internalType": "address",
					"name": "",
					"type": "address"
				}
			],
			"name": "enabledTokens",
			"outputs": [
				{
					"internalType": "bool",
					"name": "",
					"type": "bool"
				}
			],
			"stateMutability": "view",
			"type": "function"
		},
		{
			"inputs": [
				{
					"internalType": "uint256",
					"name": "amount",
					"type": "uint256"
				},
				{
					"internalType": "uint256",
					"name": "percentage",
					"type": "uint256"
				}
			],
			"name": "getPercentage",
			"outputs": [
				{
					"internalType": "uint256",
					"name": "",
					"type": "uint256"
				}
			],
			"stateMutability": "pure",
			"type": "function"
		},
		{
			"inputs": [
				{
					"internalType": "address",
					"name": "_address",
					"type": "address"
				}
			],
			"name": "getPlayersByAddress",
			"outputs": [
				{
					"components": [
						{
							"internalType": "uint256",
							"name": "balance",
							"type": "uint256"
						},
						{
							"internalType": "uint256",
							"name": "betAmount",
							"type": "uint256"
						},
						{
							"internalType": "uint256",
							"name": "betChoice",
							"type": "uint256"
						},
						{
							"internalType": "address",
							"name": "playerAddress",
							"type": "address"
						},
						{
							"internalType": "bool",
							"name": "betOngoing",
							"type": "bool"
						},
						{
							"internalType": "address",
							"name": "affiliate",
							"type": "address"
						},
						{
							"internalType": "address",
							"name": "tokenAddress",
							"type": "address"
						},
						{
							"internalType": "bool",
							"name": "atMainnet",
							"type": "bool"
						}
					],
					"internalType": "struct CrazyFlip.Flip",
					"name": "",
					"type": "tuple"
				}
			],
			"stateMutability": "view",
			"type": "function"
		},
		{
			"inputs": [
				{
					"internalType": "uint256",
					"name": "_requestId",
					"type": "uint256"
				}
			],
			"name": "getRequestStatus",
			"outputs": [
				{
					"internalType": "uint256",
					"name": "paid",
					"type": "uint256"
				},
				{
					"internalType": "bool",
					"name": "fulfilled",
					"type": "bool"
				},
				{
					"internalType": "uint256[]",
					"name": "randomWords",
					"type": "uint256[]"
				}
			],
			"stateMutability": "view",
			"type": "function"
		},
		{
			"inputs": [],
			"name": "getSkimAddress",
			"outputs": [
				{
					"internalType": "address",
					"name": "",
					"type": "address"
				}
			],
			"stateMutability": "view",
			"type": "function"
		},
		{
			"inputs": [
				{
					"internalType": "address",
					"name": "tokenAddress",
					"type": "address"
				}
			],
			"name": "isTokenEnabled",
			"outputs": [
				{
					"internalType": "bool",
					"name": "",
					"type": "bool"
				}
			],
			"stateMutability": "view",
			"type": "function"
		},
		{
			"inputs": [],
			"name": "lastRequestId",
			"outputs": [
				{
					"internalType": "uint256",
					"name": "",
					"type": "uint256"
				}
			],
			"stateMutability": "view",
			"type": "function"
		},
		{
			"inputs": [],
			"name": "owner",
			"outputs": [
				{
					"internalType": "address",
					"name": "",
					"type": "address"
				}
			],
			"stateMutability": "view",
			"type": "function"
		},
		{
			"inputs": [
				{
					"internalType": "address",
					"name": "",
					"type": "address"
				}
			],
			"name": "playersByAddress",
			"outputs": [
				{
					"internalType": "uint256",
					"name": "balance",
					"type": "uint256"
				},
				{
					"internalType": "uint256",
					"name": "betAmount",
					"type": "uint256"
				},
				{
					"internalType": "uint256",
					"name": "betChoice",
					"type": "uint256"
				},
				{
					"internalType": "address",
					"name": "playerAddress",
					"type": "address"
				},
				{
					"internalType": "bool",
					"name": "betOngoing",
					"type": "bool"
				},
				{
					"internalType": "address",
					"name": "affiliate",
					"type": "address"
				},
				{
					"internalType": "address",
					"name": "tokenAddress",
					"type": "address"
				},
				{
					"internalType": "bool",
					"name": "atMainnet",
					"type": "bool"
				}
			],
			"stateMutability": "view",
			"type": "function"
		},
		{
			"inputs": [
				{
					"internalType": "uint256",
					"name": "_requestId",
					"type": "uint256"
				},
				{
					"internalType": "uint256[]",
					"name": "_randomWords",
					"type": "uint256[]"
				}
			],
			"name": "rawFulfillRandomWords",
			"outputs": [],
			"stateMutability": "nonpayable",
			"type": "function"
		},
		{
			"inputs": [
				{
					"internalType": "uint256",
					"name": "",
					"type": "uint256"
				}
			],
			"name": "requestIds",
			"outputs": [
				{
					"internalType": "uint256",
					"name": "",
					"type": "uint256"
				}
			],
			"stateMutability": "view",
			"type": "function"
		},
		{
			"inputs": [
				{
					"internalType": "uint256",
					"name": "",
					"type": "uint256"
				}
			],
			"name": "s_requests",
			"outputs": [
				{
					"internalType": "uint256",
					"name": "paid",
					"type": "uint256"
				},
				{
					"internalType": "bool",
					"name": "fulfilled",
					"type": "bool"
				}
			],
			"stateMutability": "view",
			"type": "function"
		},
		{
			"inputs": [
				{
					"internalType": "uint32",
					"name": "gasLimit",
					"type": "uint32"
				}
			],
			"name": "setCallbackGasLimit",
			"outputs": [],
			"stateMutability": "nonpayable",
			"type": "function"
		},
		{
			"inputs": [
				{
					"internalType": "address",
					"name": "_address",
					"type": "address"
				}
			],
			"name": "setPlayerByAddressState",
			"outputs": [],
			"stateMutability": "nonpayable",
			"type": "function"
		},
		{
			"inputs": [
				{
					"internalType": "address",
					"name": "_skimAddress",
					"type": "address"
				}
			],
			"name": "setSkimAddress",
			"outputs": [],
			"stateMutability": "nonpayable",
			"type": "function"
		},
		{
			"inputs": [
				{
					"internalType": "uint256",
					"name": "",
					"type": "uint256"
				}
			],
			"name": "temps",
			"outputs": [
				{
					"internalType": "uint256",
					"name": "id",
					"type": "uint256"
				},
				{
					"internalType": "uint256",
					"name": "result",
					"type": "uint256"
				},
				{
					"internalType": "address",
					"name": "playerAddress",
					"type": "address"
				}
			],
			"stateMutability": "view",
			"type": "function"
		},
		{
			"inputs": [
				{
					"internalType": "address",
					"name": "to",
					"type": "address"
				}
			],
			"name": "transferOwnership",
			"outputs": [],
			"stateMutability": "nonpayable",
			"type": "function"
		},
		{
			"inputs": [],
			"name": "withdrawLink",
			"outputs": [],
			"stateMutability": "nonpayable",
			"type": "function"
		},
		{
			"inputs": [],
			"name": "withdrawMaincoin",
			"outputs": [],
			"stateMutability": "nonpayable",
			"type": "function"
		},
		{
			"inputs": [
				{
					"internalType": "address",
					"name": "tokenAddress",
					"type": "address"
				}
			],
			"name": "withdrawTokens",
			"outputs": [],
			"stateMutability": "nonpayable",
			"type": "function"
		},
		{
			"stateMutability": "payable",
			"type": "receive"
		}
	],
	"bytecode": "60c060405260036004806101000a81548161ffff021916908361ffff1602179055506001600460066101000a81548163ffffffff021916908363ffffffff16021790555073779877a7b0d9e8603169ddbd7836e478b4624789600560006101000a81548173ffffffffffffffffffffffffffffffffffffffff021916908373ffffffffffffffffffffffffffffffffffffffff16021790555073ab18414cd93297b0d12ac29e63ca20f515b3db46600660006101000a81548173ffffffffffffffffffffffffffffffffffffffff021916908373ffffffffffffffffffffffffffffffffffffffff16021790555060405162004bd038038062004bd08339818101604052810190620001129190620004a3565b33806000600560009054906101000a900473ffffffffffffffffffffffffffffffffffffffff16600660009054906101000a900473ffffffffffffffffffffffffffffffffffffffff168173ffffffffffffffffffffffffffffffffffffffff1660808173ffffffffffffffffffffffffffffffffffffffff16815250508073ffffffffffffffffffffffffffffffffffffffff1660a08173ffffffffffffffffffffffffffffffffffffffff16815250505050600073ffffffffffffffffffffffffffffffffffffffff168273ffffffffffffffffffffffffffffffffffffffff160362000238576040517f08c379a00000000000000000000000000000000000000000000000000000000081526004016200022f9062000536565b60405180910390fd5b816000806101000a81548173ffffffffffffffffffffffffffffffffffffffff021916908373ffffffffffffffffffffffffffffffffffffffff160217905550600073ffffffffffffffffffffffffffffffffffffffff168173ffffffffffffffffffffffffffffffffffffffff1614620002bf57620002be816200030a60201b60201c565b5b50505080600c60006101000a81548173ffffffffffffffffffffffffffffffffffffffff021916908373ffffffffffffffffffffffffffffffffffffffff16021790555050620005ca565b3373ffffffffffffffffffffffffffffffffffffffff168173ffffffffffffffffffffffffffffffffffffffff16036200037b576040517f08c379a00000000000000000000000000000000000000000000000000000000081526004016200037290620005a8565b60405180910390fd5b80600160006101000a81548173ffffffffffffffffffffffffffffffffffffffff021916908373ffffffffffffffffffffffffffffffffffffffff1602179055508073ffffffffffffffffffffffffffffffffffffffff1660008054906101000a900473ffffffffffffffffffffffffffffffffffffffff1673ffffffffffffffffffffffffffffffffffffffff167fed8889f560326eb138920d842192f0eb3dd22b4f139c87a2c57538e05bae127860405160405180910390a350565b600080fd5b600073ffffffffffffffffffffffffffffffffffffffff82169050919050565b60006200046b826200043e565b9050919050565b6200047d816200045e565b81146200048957600080fd5b50565b6000815190506200049d8162000472565b92915050565b600060208284031215620004bc57620004bb62000439565b5b6000620004cc848285016200048c565b91505092915050565b600082825260208201905092915050565b7f43616e6e6f7420736574206f776e657220746f207a65726f0000000000000000600082015250565b60006200051e601883620004d5565b91506200052b82620004e6565b602082019050919050565b6000602082019050818103600083015262000551816200050f565b9050919050565b7f43616e6e6f74207472616e7366657220746f2073656c66000000000000000000600082015250565b600062000590601783620004d5565b91506200059d8262000558565b602082019050919050565b60006020820190508181036000830152620005c38162000581565b9050919050565b60805160a0516145c46200060c600039600081816105d001528181611cc601528181612f5d01528181612f7e015261309e01526000612f2101526145c46000f3fe6080604052600436106101445760003560e01c80638dc654a2116100b6578063d8a4676f1161006f578063d8a4676f14610459578063e3358c8d14610498578063e958962b146104d5578063f2fde38b146104f1578063f74f36551461051a578063fc2a88c3146105575761014b565b80638dc654a21461035e578063a168fa8914610375578063a4eb718c146103b3578063b451cecc146103dc578063c5f0358714610419578063c690908a146104305761014b565b8063748538d911610108578063748538d914610235578063772a9afc1461027257806379ba5097146102b65780637c169989146102cd5780638796ba8c146102f65780638da5cb5b146103335761014b565b8063149cb4a9146101505780631fe543e31461017957806333c3a05a146101a257806349df728c146101cd578063718c49d5146101f65761014b565b3661014b57005b600080fd5b34801561015c57600080fd5b506101776004803603810190610172919061329b565b610582565b005b34801561018557600080fd5b506101a0600480360381019061019b9190613457565b6105ce565b005b3480156101ae57600080fd5b506101b761066a565b6040516101c491906134c2565b60405180910390f35b3480156101d957600080fd5b506101f460048036038101906101ef919061329b565b610694565b005b34801561020257600080fd5b5061021d600480360381019061021891906134dd565b61081c565b60405161022c93929190613519565b60405180910390f35b34801561024157600080fd5b5061025c6004803603810190610257919061329b565b610866565b604051610269919061356b565b60405180910390f35b34801561027e57600080fd5b506102996004803603810190610294919061329b565b6108bc565b6040516102ad989796959493929190613586565b60405180910390f35b3480156102c257600080fd5b506102cb61097e565b005b3480156102d957600080fd5b506102f460048036038101906102ef919061329b565b610b13565b005b34801561030257600080fd5b5061031d600480360381019061031891906134dd565b610bc1565b60405161032a9190613604565b60405180910390f35b34801561033f57600080fd5b50610348610be5565b60405161035591906134c2565b60405180910390f35b34801561036a57600080fd5b50610373610c0e565b005b34801561038157600080fd5b5061039c600480360381019061039791906134dd565b610d76565b6040516103aa92919061361f565b60405180910390f35b3480156103bf57600080fd5b506103da60048036038101906103d59190613684565b610da7565b005b3480156103e857600080fd5b5061040360048036038101906103fe919061329b565b610dd3565b604051610410919061356b565b60405180910390f35b34801561042557600080fd5b5061042e610df3565b005b34801561043c57600080fd5b506104576004803603810190610452919061329b565b610e74565b005b34801561046557600080fd5b50610480600480360381019061047b91906134dd565b610f10565b60405161048f9392919061376f565b60405180910390f35b3480156104a457600080fd5b506104bf60048036038101906104ba919061329b565b61102a565b6040516104cc919061386d565b60405180910390f35b6104ef60048036038101906104ea91906138b5565b6111da565b005b3480156104fd57600080fd5b506105186004803603810190610513919061329b565b61194c565b005b34801561052657600080fd5b50610541600480360381019061053c9190613930565b611960565b60405161054e9190613604565b60405180910390f35b34801561056357600080fd5b5061056c611982565b6040516105799190613604565b60405180910390f35b61058a611988565b806004600a6101000a81548173ffffffffffffffffffffffffffffffffffffffff021916908373ffffffffffffffffffffffffffffffffffffffff16021790555050565b7f000000000000000000000000000000000000000000000000000000000000000073ffffffffffffffffffffffffffffffffffffffff163373ffffffffffffffffffffffffffffffffffffffff161461065c576040517f08c379a0000000000000000000000000000000000000000000000000000000008152600401610653906139cd565b60405180910390fd5b6106668282611a18565b5050565b60006004600a9054906101000a900473ffffffffffffffffffffffffffffffffffffffff16905090565b61069c611988565b80600b60006101000a81548173ffffffffffffffffffffffffffffffffffffffff021916908373ffffffffffffffffffffffffffffffffffffffff160217905550600b60009054906101000a900473ffffffffffffffffffffffffffffffffffffffff1673ffffffffffffffffffffffffffffffffffffffff1663a9059cbb33600b60009054906101000a900473ffffffffffffffffffffffffffffffffffffffff1673ffffffffffffffffffffffffffffffffffffffff166370a08231306040518263ffffffff1660e01b815260040161077791906134c2565b602060405180830381865afa158015610794573d6000803e3d6000fd5b505050506040513d601f19601f820116820180604052508101906107b89190613a02565b6040518363ffffffff1660e01b81526004016107d5929190613a2f565b6020604051808303816000875af11580156107f4573d6000803e3d6000fd5b505050506040513d601f19601f820116820180604052508101906108189190613a6d565b5050565b60086020528060005260406000206000915090508060000154908060010154908060020160009054906101000a900473ffffffffffffffffffffffffffffffffffffffff16905083565b6000600960008373ffffffffffffffffffffffffffffffffffffffff1673ffffffffffffffffffffffffffffffffffffffff16815260200190815260200160002060009054906101000a900460ff169050919050565b60076020528060005260406000206000915090508060000154908060010154908060020154908060030160009054906101000a900473ffffffffffffffffffffffffffffffffffffffff16908060030160149054906101000a900460ff16908060040160009054906101000a900473ffffffffffffffffffffffffffffffffffffffff16908060050160009054906101000a900473ffffffffffffffffffffffffffffffffffffffff16908060050160149054906101000a900460ff16905088565b600160009054906101000a900473ffffffffffffffffffffffffffffffffffffffff1673ffffffffffffffffffffffffffffffffffffffff163373ffffffffffffffffffffffffffffffffffffffff1614610a0e576040517f08c379a0000000000000000000000000000000000000000000000000000000008152600401610a0590613ae6565b60405180910390fd5b60008060009054906101000a900473ffffffffffffffffffffffffffffffffffffffff169050336000806101000a81548173ffffffffffffffffffffffffffffffffffffffff021916908373ffffffffffffffffffffffffffffffffffffffff1602179055506000600160006101000a81548173ffffffffffffffffffffffffffffffffffffffff021916908373ffffffffffffffffffffffffffffffffffffffff1602179055503373ffffffffffffffffffffffffffffffffffffffff168173ffffffffffffffffffffffffffffffffffffffff167f8be0079c531659141344cd1fd0a4f28419497f9722a3daafe3b4186f6b6457e060405160405180910390a350565b610b1b611988565b6000600760008373ffffffffffffffffffffffffffffffffffffffff1673ffffffffffffffffffffffffffffffffffffffff16815260200190815260200160002060030160146101000a81548160ff0219169083151502179055506000600760008373ffffffffffffffffffffffffffffffffffffffff1673ffffffffffffffffffffffffffffffffffffffff1681526020019081526020016000206001018190555050565b60028181548110610bd157600080fd5b906000526020600020016000915090505481565b60008060009054906101000a900473ffffffffffffffffffffffffffffffffffffffff16905090565b610c16611988565b6000600560009054906101000a900473ffffffffffffffffffffffffffffffffffffffff1690508073ffffffffffffffffffffffffffffffffffffffff1663a9059cbb338373ffffffffffffffffffffffffffffffffffffffff166370a08231306040518263ffffffff1660e01b8152600401610c9391906134c2565b602060405180830381865afa158015610cb0573d6000803e3d6000fd5b505050506040513d601f19601f82011682018060405250810190610cd49190613a02565b6040518363ffffffff1660e01b8152600401610cf1929190613a2f565b6020604051808303816000875af1158015610d10573d6000803e3d6000fd5b505050506040513d601f19601f82011682018060405250810190610d349190613a6d565b610d73576040517f08c379a0000000000000000000000000000000000000000000000000000000008152600401610d6a90613b52565b60405180910390fd5b50565b600a6020528060005260406000206000915090508060000154908060010160009054906101000a900460ff16905082565b610daf611988565b80600460006101000a81548163ffffffff021916908363ffffffff16021790555050565b60096020528060005260406000206000915054906101000a900460ff1681565b610dfb611988565b60003373ffffffffffffffffffffffffffffffffffffffff1647604051610e2190613ba3565b60006040518083038185875af1925050503d8060008114610e5e576040519150601f19603f3d011682016040523d82523d6000602084013e610e63565b606091505b5050905080610e7157600080fd5b50565b610e7c611988565b600073ffffffffffffffffffffffffffffffffffffffff168173ffffffffffffffffffffffffffffffffffffffff1603610eb557600080fd5b6001600960008373ffffffffffffffffffffffffffffffffffffffff1673ffffffffffffffffffffffffffffffffffffffff16815260200190815260200160002060006101000a81548160ff02191690831515021790555050565b60008060606000600a60008681526020019081526020016000206000015411610f6e576040517f08c379a0000000000000000000000000000000000000000000000000000000008152600401610f6590613c04565b60405180910390fd5b6000600a6000868152602001908152602001600020604051806060016040529081600082015481526020016001820160009054906101000a900460ff161515151581526020016002820180548060200260200160405190810160405280929190818152602001828054801561100257602002820191906000526020600020905b815481526020019060010190808311610fee575b5050505050815250509050806000015181602001518260400151935093509350509193909250565b611032613134565b600760008373ffffffffffffffffffffffffffffffffffffffff1673ffffffffffffffffffffffffffffffffffffffff168152602001908152602001600020604051806101000160405290816000820154815260200160018201548152602001600282015481526020016003820160009054906101000a900473ffffffffffffffffffffffffffffffffffffffff1673ffffffffffffffffffffffffffffffffffffffff1673ffffffffffffffffffffffffffffffffffffffff1681526020016003820160149054906101000a900460ff161515151581526020016004820160009054906101000a900473ffffffffffffffffffffffffffffffffffffffff1673ffffffffffffffffffffffffffffffffffffffff1673ffffffffffffffffffffffffffffffffffffffff1681526020016005820160009054906101000a900473ffffffffffffffffffffffffffffffffffffffff1673ffffffffffffffffffffffffffffffffffffffff1673ffffffffffffffffffffffffffffffffffffffff1681526020016005820160149054906101000a900460ff1615151515815250509050919050565b600760003373ffffffffffffffffffffffffffffffffffffffff1673ffffffffffffffffffffffffffffffffffffffff16815260200190815260200160002060030160149054906101000a900460ff161561126a576040517f08c379a000000000000000000000000000000000000000000000000000000000815260040161126190613c96565b60405180910390fd5b60008514806112795750600185145b6112b8576040517f08c379a00000000000000000000000000000000000000000000000000000000081526004016112af90613d28565b60405180910390fd5b600082116112fb576040517f08c379a00000000000000000000000000000000000000000000000000000000081526004016112f290613d94565b60405180910390fd5b806115b257600960008573ffffffffffffffffffffffffffffffffffffffff1673ffffffffffffffffffffffffffffffffffffffff16815260200190815260200160002060009054906101000a900460ff1661138c576040517f08c379a000000000000000000000000000000000000000000000000000000000815260040161138390613e26565b60405180910390fd5b600261139785611b92565b6113a19190613ea4565b8211156113e3576040517f08c379a00000000000000000000000000000000000000000000000000000000081526004016113da90613f47565b60405180910390fd5b83600b60006101000a81548173ffffffffffffffffffffffffffffffffffffffff021916908373ffffffffffffffffffffffffffffffffffffffff1602179055506000600b60009054906101000a900473ffffffffffffffffffffffffffffffffffffffff1673ffffffffffffffffffffffffffffffffffffffff1663dd62ed3e33306040518363ffffffff1660e01b8152600401611483929190613f67565b602060405180830381865afa1580156114a0573d6000803e3d6000fd5b505050506040513d601f19601f820116820180604052508101906114c49190613a02565b905082811015611509576040517f08c379a000000000000000000000000000000000000000000000000000000000815260040161150090613fdc565b60405180910390fd5b600b60009054906101000a900473ffffffffffffffffffffffffffffffffffffffff1673ffffffffffffffffffffffffffffffffffffffff166323b872dd3330866040518463ffffffff1660e01b815260040161156893929190613ffc565b6020604051808303816000875af1158015611587573d6000803e3d6000fd5b505050506040513d601f19601f820116820180604052508101906115ab9190613a6d565b5050611602565b6002476115bf9190613ea4565b341115611601576040517f08c379a00000000000000000000000000000000000000000000000000000000081526004016115f8906140a5565b60405180910390fd5b5b33600760003373ffffffffffffffffffffffffffffffffffffffff1673ffffffffffffffffffffffffffffffffffffffff16815260200190815260200160002060030160006101000a81548173ffffffffffffffffffffffffffffffffffffffff021916908373ffffffffffffffffffffffffffffffffffffffff16021790555084600760003373ffffffffffffffffffffffffffffffffffffffff1673ffffffffffffffffffffffffffffffffffffffff168152602001908152602001600020600201819055506001600760003373ffffffffffffffffffffffffffffffffffffffff1673ffffffffffffffffffffffffffffffffffffffff16815260200190815260200160002060030160146101000a81548160ff02191690831515021790555081600760003373ffffffffffffffffffffffffffffffffffffffff1673ffffffffffffffffffffffffffffffffffffffff1681526020019081526020016000206001018190555083600760003373ffffffffffffffffffffffffffffffffffffffff1673ffffffffffffffffffffffffffffffffffffffff16815260200190815260200160002060050160006101000a81548173ffffffffffffffffffffffffffffffffffffffff021916908373ffffffffffffffffffffffffffffffffffffffff16021790555082600760003373ffffffffffffffffffffffffffffffffffffffff1673ffffffffffffffffffffffffffffffffffffffff16815260200190815260200160002060040160006101000a81548173ffffffffffffffffffffffffffffffffffffffff021916908373ffffffffffffffffffffffffffffffffffffffff16021790555080600760003373ffffffffffffffffffffffffffffffffffffffff1673ffffffffffffffffffffffffffffffffffffffff16815260200190815260200160002060050160146101000a81548160ff02191690831515021790555060006118d2611c78565b9050336008600083815260200190815260200160002060020160006101000a81548173ffffffffffffffffffffffffffffffffffffffff021916908373ffffffffffffffffffffffffffffffffffffffff160217905550806008600083815260200190815260200160002060000181905550505050505050565b611954611988565b61195d81611e5b565b50565b60006064828461197091906140c5565b61197a9190613ea4565b905092915050565b60035481565b60008054906101000a900473ffffffffffffffffffffffffffffffffffffffff1673ffffffffffffffffffffffffffffffffffffffff163373ffffffffffffffffffffffffffffffffffffffff1614611a16576040517f08c379a0000000000000000000000000000000000000000000000000000000008152600401611a0d90614153565b60405180910390fd5b565b6000600a60008481526020019081526020016000206000015411611a71576040517f08c379a0000000000000000000000000000000000000000000000000000000008152600401611a6890613c04565b60405180910390fd5b6000806000806001600a600088815260200190815260200160002060010160006101000a81548160ff02191690831515021790555084600a60008881526020019081526020016000206002019080519060200190611ad09291906131bf565b506000600286600081518110611ae957611ae8614173565b5b6020026020010151611afb91906141a2565b9050806008600089815260200190815260200160002060010181905550611b228188611f87565b80955081965082975083985050505050828573ffffffffffffffffffffffffffffffffffffffff167fecca475f0dff1f06a2a102659c262389e5889e7b60569bc3bd223fca2d534a578685428c8c604051611b819594939291906141d3565b60405180910390a350505050505050565b600081600b60006101000a81548173ffffffffffffffffffffffffffffffffffffffff021916908373ffffffffffffffffffffffffffffffffffffffff160217905550600b60009054906101000a900473ffffffffffffffffffffffffffffffffffffffff1673ffffffffffffffffffffffffffffffffffffffff166370a08231306040518263ffffffff1660e01b8152600401611c3091906134c2565b602060405180830381865afa158015611c4d573d6000803e3d6000fd5b505050506040513d601f19601f82011682018060405250810190611c719190613a02565b9050919050565b6000611cb7600460009054906101000a900463ffffffff1660048054906101000a900461ffff16600460069054906101000a900463ffffffff16612f1d565b905060405180606001604052807f000000000000000000000000000000000000000000000000000000000000000073ffffffffffffffffffffffffffffffffffffffff16634306d354600460009054906101000a900463ffffffff166040518263ffffffff1660e01b8152600401611d2f919061423c565b602060405180830381865afa158015611d4c573d6000803e3d6000fd5b505050506040513d601f19601f82011682018060405250810190611d709190613a02565b8152602001600015158152602001600067ffffffffffffffff811115611d9957611d98613314565b5b604051908082528060200260200182016040528015611dc75781602001602082028036833780820191505090505b50815250600a60008381526020019081526020016000206000820151816000015560208201518160010160006101000a81548160ff0219169083151502179055506040820151816002019080519060200190611e249291906131bf565b5090505060028190806001815401808255809150506001900390600052602060002001600090919091909150558060038190555090565b3373ffffffffffffffffffffffffffffffffffffffff168173ffffffffffffffffffffffffffffffffffffffff1603611ec9576040517f08c379a0000000000000000000000000000000000000000000000000000000008152600401611ec0906142a3565b60405180910390fd5b80600160006101000a81548173ffffffffffffffffffffffffffffffffffffffff021916908373ffffffffffffffffffffffffffffffffffffffff1602179055508073ffffffffffffffffffffffffffffffffffffffff1660008054906101000a900473ffffffffffffffffffffffffffffffffffffffff1673ffffffffffffffffffffffffffffffffffffffff167fed8889f560326eb138920d842192f0eb3dd22b4f139c87a2c57538e05bae127860405160405180910390a350565b60008060008060006008600087815260200190815260200160002060020160009054906101000a900473ffffffffffffffffffffffffffffffffffffffff1690506000600760008373ffffffffffffffffffffffffffffffffffffffff1673ffffffffffffffffffffffffffffffffffffffff16815260200190815260200160002060040160009054906101000a900473ffffffffffffffffffffffffffffffffffffffff1690506000806000806000600760008873ffffffffffffffffffffffffffffffffffffffff1673ffffffffffffffffffffffffffffffffffffffff1681526020019081526020016000206001015490506000600760008973ffffffffffffffffffffffffffffffffffffffff1673ffffffffffffffffffffffffffffffffffffffff16815260200190815260200160002060050160009054906101000a900473ffffffffffffffffffffffffffffffffffffffff16905080600b60006101000a81548173ffffffffffffffffffffffffffffffffffffffff021916908373ffffffffffffffffffffffffffffffffffffffff1602179055508d600760008a73ffffffffffffffffffffffffffffffffffffffff1673ffffffffffffffffffffffffffffffffffffffff168152602001908152602001600020600201540361289857600061217a83605f611960565b90506002612189846005611960565b61219391906140c5565b94506002816121a291906140c5565b9550600073ffffffffffffffffffffffffffffffffffffffff168873ffffffffffffffffffffffffffffffffffffffff16146121f4576121e3856014611960565b935083856121f191906142c3565b94505b600760008a73ffffffffffffffffffffffffffffffffffffffff1673ffffffffffffffffffffffffffffffffffffffff16815260200190815260200160002060050160149054906101000a900460ff1661255b57600b60009054906101000a900473ffffffffffffffffffffffffffffffffffffffff1673ffffffffffffffffffffffffffffffffffffffff1663a9059cbb8a886040518363ffffffff1660e01b81526004016122a5929190613a2f565b6020604051808303816000875af11580156122c4573d6000803e3d6000fd5b505050506040513d601f19601f820116820180604052508101906122e89190613a6d565b50600b60009054906101000a900473ffffffffffffffffffffffffffffffffffffffff1673ffffffffffffffffffffffffffffffffffffffff1663a9059cbb6004600a9054906101000a900473ffffffffffffffffffffffffffffffffffffffff16876040518363ffffffff1660e01b8152600401612368929190613a2f565b6020604051808303816000875af1158015612387573d6000803e3d6000fd5b505050506040513d601f19601f820116820180604052508101906123ab9190613a6d565b50600073ffffffffffffffffffffffffffffffffffffffff168873ffffffffffffffffffffffffffffffffffffffff16141580156124af57508773ffffffffffffffffffffffffffffffffffffffff16600c60009054906101000a900473ffffffffffffffffffffffffffffffffffffffff1673ffffffffffffffffffffffffffffffffffffffff16634f8999f28b6040518263ffffffff1660e01b815260040161245691906134c2565b602060405180830381865afa158015612473573d6000803e3d6000fd5b505050506040513d601f19601f82011682018060405250810190612497919061430c565b73ffffffffffffffffffffffffffffffffffffffff16145b1561255657600b60009054906101000a900473ffffffffffffffffffffffffffffffffffffffff1673ffffffffffffffffffffffffffffffffffffffff1663a9059cbb89866040518363ffffffff1660e01b8152600401612511929190613a2f565b6020604051808303816000875af1158015612530573d6000803e3d6000fd5b505050506040513d601f19601f820116820180604052508101906125549190613a6d565b505b61288e565b60008973ffffffffffffffffffffffffffffffffffffffff168760405161258190613ba3565b60006040518083038185875af1925050503d80600081146125be576040519150601f19603f3d011682016040523d82523d6000602084013e6125c3565b606091505b5050905080612607576040517f08c379a00000000000000000000000000000000000000000000000000000000081526004016125fe90614385565b60405180910390fd5b60006004600a9054906101000a900473ffffffffffffffffffffffffffffffffffffffff1673ffffffffffffffffffffffffffffffffffffffff168760405161264f90613ba3565b60006040518083038185875af1925050503d806000811461268c576040519150601f19603f3d011682016040523d82523d6000602084013e612691565b606091505b50509050806126d5576040517f08c379a00000000000000000000000000000000000000000000000000000000081526004016126cc906143f1565b60405180910390fd5b600073ffffffffffffffffffffffffffffffffffffffff168a73ffffffffffffffffffffffffffffffffffffffff16141580156127d857508973ffffffffffffffffffffffffffffffffffffffff16600c60009054906101000a900473ffffffffffffffffffffffffffffffffffffffff1673ffffffffffffffffffffffffffffffffffffffff16634f8999f28d6040518263ffffffff1660e01b815260040161277f91906134c2565b602060405180830381865afa15801561279c573d6000803e3d6000fd5b505050506040513d601f19601f820116820180604052508101906127c0919061430c565b73ffffffffffffffffffffffffffffffffffffffff16145b1561288b5760008a73ffffffffffffffffffffffffffffffffffffffff168760405161280390613ba3565b60006040518083038185875af1925050503d8060008114612840576040519150601f19603f3d011682016040523d82523d6000602084013e612845565b606091505b5050905080612889576040517f08c379a00000000000000000000000000000000000000000000000000000000081526004016128809061445d565b60405180910390fd5b505b50505b6001965050612e10565b6128a3826005611960565b9350600073ffffffffffffffffffffffffffffffffffffffff168773ffffffffffffffffffffffffffffffffffffffff16146128f5576128e4846014611960565b925082846128f291906142c3565b93505b600760008973ffffffffffffffffffffffffffffffffffffffff1673ffffffffffffffffffffffffffffffffffffffff16815260200190815260200160002060050160149054906101000a900460ff16612bbb57600073ffffffffffffffffffffffffffffffffffffffff168773ffffffffffffffffffffffffffffffffffffffff1614158015612a4c57508673ffffffffffffffffffffffffffffffffffffffff16600c60009054906101000a900473ffffffffffffffffffffffffffffffffffffffff1673ffffffffffffffffffffffffffffffffffffffff16634f8999f28a6040518263ffffffff1660e01b81526004016129f391906134c2565b602060405180830381865afa158015612a10573d6000803e3d6000fd5b505050506040513d601f19601f82011682018060405250810190612a34919061430c565b73ffffffffffffffffffffffffffffffffffffffff16145b15612af357600b60009054906101000a900473ffffffffffffffffffffffffffffffffffffffff1673ffffffffffffffffffffffffffffffffffffffff1663a9059cbb88856040518363ffffffff1660e01b8152600401612aae929190613a2f565b6020604051808303816000875af1158015612acd573d6000803e3d6000fd5b505050506040513d601f19601f82011682018060405250810190612af19190613a6d565b505b600b60009054906101000a900473ffffffffffffffffffffffffffffffffffffffff1673ffffffffffffffffffffffffffffffffffffffff1663a9059cbb6004600a9054906101000a900473ffffffffffffffffffffffffffffffffffffffff16866040518363ffffffff1660e01b8152600401612b72929190613a2f565b6020604051808303816000875af1158015612b91573d6000803e3d6000fd5b505050506040513d601f19601f82011682018060405250810190612bb59190613a6d565b50612e0b565b600073ffffffffffffffffffffffffffffffffffffffff168773ffffffffffffffffffffffffffffffffffffffff1614158015612cbe57508673ffffffffffffffffffffffffffffffffffffffff16600c60009054906101000a900473ffffffffffffffffffffffffffffffffffffffff1673ffffffffffffffffffffffffffffffffffffffff16634f8999f28a6040518263ffffffff1660e01b8152600401612c6591906134c2565b602060405180830381865afa158015612c82573d6000803e3d6000fd5b505050506040513d601f19601f82011682018060405250810190612ca6919061430c565b73ffffffffffffffffffffffffffffffffffffffff16145b15612d715760008773ffffffffffffffffffffffffffffffffffffffff1684604051612ce990613ba3565b60006040518083038185875af1925050503d8060008114612d26576040519150601f19603f3d011682016040523d82523d6000602084013e612d2b565b606091505b5050905080612d6f576040517f08c379a0000000000000000000000000000000000000000000000000000000008152600401612d669061445d565b60405180910390fd5b505b60006004600a9054906101000a900473ffffffffffffffffffffffffffffffffffffffff1673ffffffffffffffffffffffffffffffffffffffff1685604051612db990613ba3565b60006040518083038185875af1925050503d8060008114612df6576040519150601f19603f3d011682016040523d82523d6000602084013e612dfb565b606091505b5050905080612e0957600080fd5b505b600095505b6000600760008a73ffffffffffffffffffffffffffffffffffffffff1673ffffffffffffffffffffffffffffffffffffffff168152602001908152602001600020600101819055506000600760008a73ffffffffffffffffffffffffffffffffffffffff1673ffffffffffffffffffffffffffffffffffffffff16815260200190815260200160002060030160146101000a81548160ff021916908315150217905550600860008e815260200190815260200160002060008082016000905560018201600090556002820160006101000a81549073ffffffffffffffffffffffffffffffffffffffff02191690555050878686849b509b509b509b50505050505050505092959194509250565b60007f000000000000000000000000000000000000000000000000000000000000000073ffffffffffffffffffffffffffffffffffffffff16634000aea07f00000000000000000000000000000000000000000000000000000000000000007f000000000000000000000000000000000000000000000000000000000000000073ffffffffffffffffffffffffffffffffffffffff16634306d354886040518263ffffffff1660e01b8152600401612fd5919061423c565b602060405180830381865afa158015612ff2573d6000803e3d6000fd5b505050506040513d601f19601f820116820180604052508101906130169190613a02565b87878760405160200161302b9392919061449a565b6040516020818303038152906040526040518463ffffffff1660e01b815260040161305893929190614550565b6020604051808303816000875af1158015613077573d6000803e3d6000fd5b505050506040513d601f19601f8201168201806040525081019061309b9190613a6d565b507f000000000000000000000000000000000000000000000000000000000000000073ffffffffffffffffffffffffffffffffffffffff1663fc2a88c36040518163ffffffff1660e01b8152600401602060405180830381865afa158015613107573d6000803e3d6000fd5b505050506040513d601f19601f8201168201806040525081019061312b9190613a02565b90509392505050565b604051806101000160405280600081526020016000815260200160008152602001600073ffffffffffffffffffffffffffffffffffffffff168152602001600015158152602001600073ffffffffffffffffffffffffffffffffffffffff168152602001600073ffffffffffffffffffffffffffffffffffffffff1681526020016000151581525090565b8280548282559060005260206000209081019282156131fb579160200282015b828111156131fa5782518255916020019190600101906131df565b5b509050613208919061320c565b5090565b5b8082111561322557600081600090555060010161320d565b5090565b6000604051905090565b600080fd5b600080fd5b600073ffffffffffffffffffffffffffffffffffffffff82169050919050565b60006132688261323d565b9050919050565b6132788161325d565b811461328357600080fd5b50565b6000813590506132958161326f565b92915050565b6000602082840312156132b1576132b0613233565b5b60006132bf84828501613286565b91505092915050565b6000819050919050565b6132db816132c8565b81146132e657600080fd5b50565b6000813590506132f8816132d2565b92915050565b600080fd5b6000601f19601f8301169050919050565b7f4e487b7100000000000000000000000000000000000000000000000000000000600052604160045260246000fd5b61334c82613303565b810181811067ffffffffffffffff8211171561336b5761336a613314565b5b80604052505050565b600061337e613229565b905061338a8282613343565b919050565b600067ffffffffffffffff8211156133aa576133a9613314565b5b602082029050602081019050919050565b600080fd5b60006133d36133ce8461338f565b613374565b905080838252602082019050602084028301858111156133f6576133f56133bb565b5b835b8181101561341f578061340b88826132e9565b8452602084019350506020810190506133f8565b5050509392505050565b600082601f83011261343e5761343d6132fe565b5b813561344e8482602086016133c0565b91505092915050565b6000806040838503121561346e5761346d613233565b5b600061347c858286016132e9565b925050602083013567ffffffffffffffff81111561349d5761349c613238565b5b6134a985828601613429565b9150509250929050565b6134bc8161325d565b82525050565b60006020820190506134d760008301846134b3565b92915050565b6000602082840312156134f3576134f2613233565b5b6000613501848285016132e9565b91505092915050565b613513816132c8565b82525050565b600060608201905061352e600083018661350a565b61353b602083018561350a565b61354860408301846134b3565b949350505050565b60008115159050919050565b61356581613550565b82525050565b6000602082019050613580600083018461355c565b92915050565b60006101008201905061359c600083018b61350a565b6135a9602083018a61350a565b6135b6604083018961350a565b6135c360608301886134b3565b6135d0608083018761355c565b6135dd60a08301866134b3565b6135ea60c08301856134b3565b6135f760e083018461355c565b9998505050505050505050565b6000602082019050613619600083018461350a565b92915050565b6000604082019050613634600083018561350a565b613641602083018461355c565b9392505050565b600063ffffffff82169050919050565b61366181613648565b811461366c57600080fd5b50565b60008135905061367e81613658565b92915050565b60006020828403121561369a57613699613233565b5b60006136a88482850161366f565b91505092915050565b600081519050919050565b600082825260208201905092915050565b6000819050602082019050919050565b6136e6816132c8565b82525050565b60006136f883836136dd565b60208301905092915050565b6000602082019050919050565b600061371c826136b1565b61372681856136bc565b9350613731836136cd565b8060005b8381101561376257815161374988826136ec565b975061375483613704565b925050600181019050613735565b5085935050505092915050565b6000606082019050613784600083018661350a565b613791602083018561355c565b81810360408301526137a38184613711565b9050949350505050565b6137b68161325d565b82525050565b6137c581613550565b82525050565b610100820160008201516137e260008501826136dd565b5060208201516137f560208501826136dd565b50604082015161380860408501826136dd565b50606082015161381b60608501826137ad565b50608082015161382e60808501826137bc565b5060a082015161384160a08501826137ad565b5060c082015161385460c08501826137ad565b5060e082015161386760e08501826137bc565b50505050565b60006101008201905061388360008301846137cb565b92915050565b61389281613550565b811461389d57600080fd5b50565b6000813590506138af81613889565b92915050565b600080600080600060a086880312156138d1576138d0613233565b5b60006138df888289016132e9565b95505060206138f088828901613286565b945050604061390188828901613286565b9350506060613912888289016132e9565b9250506080613923888289016138a0565b9150509295509295909350565b6000806040838503121561394757613946613233565b5b6000613955858286016132e9565b9250506020613966858286016132e9565b9150509250929050565b600082825260208201905092915050565b7f6f6e6c792056524620563220777261707065722063616e2066756c66696c6c00600082015250565b60006139b7601f83613970565b91506139c282613981565b602082019050919050565b600060208201905081810360008301526139e6816139aa565b9050919050565b6000815190506139fc816132d2565b92915050565b600060208284031215613a1857613a17613233565b5b6000613a26848285016139ed565b91505092915050565b6000604082019050613a4460008301856134b3565b613a51602083018461350a565b9392505050565b600081519050613a6781613889565b92915050565b600060208284031215613a8357613a82613233565b5b6000613a9184828501613a58565b91505092915050565b7f4d7573742062652070726f706f736564206f776e657200000000000000000000600082015250565b6000613ad0601683613970565b9150613adb82613a9a565b602082019050919050565b60006020820190508181036000830152613aff81613ac3565b9050919050565b7f556e61626c6520746f207472616e736665720000000000000000000000000000600082015250565b6000613b3c601283613970565b9150613b4782613b06565b602082019050919050565b60006020820190508181036000830152613b6b81613b2f565b9050919050565b600081905092915050565b50565b6000613b8d600083613b72565b9150613b9882613b7d565b600082019050919050565b6000613bae82613b80565b9150819050919050565b7f72657175657374206e6f7420666f756e64000000000000000000000000000000600082015250565b6000613bee601183613970565b9150613bf982613bb8565b602082019050919050565b60006020820190508181036000830152613c1d81613be1565b9050919050565b7f4372617a79466c69703a204164647265737320616c726561647920617320616e60008201527f20416374697665204265742063757272656e746c79206f6e676f696e67000000602082015250565b6000613c80603d83613970565b9150613c8b82613c24565b604082019050919050565b60006020820190508181036000830152613caf81613c73565b9050919050565b7f4372617a79466c69703a20496e76616c6964204265742063686f69636520707260008201527f6f76696465640000000000000000000000000000000000000000000000000000602082015250565b6000613d12602683613970565b9150613d1d82613cb6565b604082019050919050565b60006020820190508181036000830152613d4181613d05565b9050919050565b7f41646420616d6f756e7420746f20626574000000000000000000000000000000600082015250565b6000613d7e601183613970565b9150613d8982613d48565b602082019050919050565b60006020820190508181036000830152613dad81613d71565b9050919050565b7f4372617a79466c69703a20546f6b656e2063686f696365206973206e6f74206560008201527f6e61626c65640000000000000000000000000000000000000000000000000000602082015250565b6000613e10602683613970565b9150613e1b82613db4565b604082019050919050565b60006020820190508181036000830152613e3f81613e03565b9050919050565b7f4e487b7100000000000000000000000000000000000000000000000000000000600052601260045260246000fd5b7f4e487b7100000000000000000000000000000000000000000000000000000000600052601160045260246000fd5b6000613eaf826132c8565b9150613eba836132c8565b925082613eca57613ec9613e46565b5b828204905092915050565b7f4372617a79466c69703a20496e73756666696369656e74205072697a6520506f60008201527f6f6c2042616c616e636520666f7220746869732042657420416d6f756e740000602082015250565b6000613f31603e83613970565b9150613f3c82613ed5565b604082019050919050565b60006020820190508181036000830152613f6081613f24565b9050919050565b6000604082019050613f7c60008301856134b3565b613f8960208301846134b3565b9392505050565b7f496e73756666696369656e74207370656e64696e6720616d6f756e7400000000600082015250565b6000613fc6601c83613970565b9150613fd182613f90565b602082019050919050565b60006020820190508181036000830152613ff581613fb9565b9050919050565b600060608201905061401160008301866134b3565b61401e60208301856134b3565b61402b604083018461350a565b949350505050565b7f496e73756666696369656e7420436f696e20696e2074686520636f6e7472616360008201527f7400000000000000000000000000000000000000000000000000000000000000602082015250565b600061408f602183613970565b915061409a82614033565b604082019050919050565b600060208201905081810360008301526140be81614082565b9050919050565b60006140d0826132c8565b91506140db836132c8565b92508282026140e9816132c8565b91508282048414831517614100576140ff613e75565b5b5092915050565b7f4f6e6c792063616c6c61626c65206279206f776e657200000000000000000000600082015250565b600061413d601683613970565b915061414882614107565b602082019050919050565b6000602082019050818103600083015261416c81614130565b9050919050565b7f4e487b7100000000000000000000000000000000000000000000000000000000600052603260045260246000fd5b60006141ad826132c8565b91506141b8836132c8565b9250826141c8576141c7613e46565b5b828206905092915050565b600060a0820190506141e8600083018861355c565b6141f5602083018761350a565b614202604083018661350a565b61420f606083018561350a565b81810360808301526142218184613711565b90509695505050505050565b61423681613648565b82525050565b6000602082019050614251600083018461422d565b92915050565b7f43616e6e6f74207472616e7366657220746f2073656c66000000000000000000600082015250565b600061428d601783613970565b915061429882614257565b602082019050919050565b600060208201905081810360008301526142bc81614280565b9050919050565b60006142ce826132c8565b91506142d9836132c8565b92508282039050818111156142f1576142f0613e75565b5b92915050565b6000815190506143068161326f565b92915050565b60006020828403121561432257614321613233565b5b6000614330848285016142f7565b91505092915050565b7f616d6f756e74206e6f742073656e7420746f20706c6179657200000000000000600082015250565b600061436f601983613970565b915061437a82614339565b602082019050919050565b6000602082019050818103600083015261439e81614362565b9050919050565b7f616d6f756e74206e6f742073656e7420746f20736b696d206163636f756e7400600082015250565b60006143db601f83613970565b91506143e6826143a5565b602082019050919050565b6000602082019050818103600083015261440a816143ce565b9050919050565b7f616d6f756e74206e6f742073656e7420746f20616666696c6961746500000000600082015250565b6000614447601c83613970565b915061445282614411565b602082019050919050565b600060208201905081810360008301526144768161443a565b9050919050565b600061ffff82169050919050565b6144948161447d565b82525050565b60006060820190506144af600083018661422d565b6144bc602083018561448b565b6144c9604083018461422d565b949350505050565b600081519050919050565b600082825260208201905092915050565b60005b8381101561450b5780820151818401526020810190506144f0565b60008484015250505050565b6000614522826144d1565b61452c81856144dc565b935061453c8185602086016144ed565b61454581613303565b840191505092915050565b600060608201905061456560008301866134b3565b614572602083018561350a565b81810360408301526145848184614517565b905094935050505056fea2646970667358221220b155b35a51862eb973e6dbed193f2803df1d6922f712584c02b30f4dac0b008064736f6c63430008130033",
	"deployedBytecode": "0x60806040526004361061014f5760003560e01c80638dc654a2116100b6578063d8a4676f1161006f578063d8a4676f1461048d578063e3358c8d146104cc578063e958962b14610509578063f2fde38b14610525578063f74f36551461054e578063fc2a88c31461058b57610156565b80638dc654a214610392578063a168fa89146103a9578063a4eb718c146103e7578063b451cecc14610410578063c5f035871461044d578063c690908a1461046457610156565b8063748538d911610108578063748538d914610269578063772a9afc146102a657806379ba5097146102ea5780637c169989146103015780638796ba8c1461032a5780638da5cb5b1461036757610156565b8063149cb4a91461015b5780631fe543e31461018457806333c3a05a146101ad57806349df728c146101d85780634d09c61e14610201578063718c49d51461022a57610156565b3661015657005b600080fd5b34801561016757600080fd5b50610182600480360381019061017d9190612aeb565b6105b6565b005b34801561019057600080fd5b506101ab60048036038101906101a69190612ca7565b610602565b005b3480156101b957600080fd5b506101c261069e565b6040516101cf9190612d12565b60405180910390f35b3480156101e457600080fd5b506101ff60048036038101906101fa9190612aeb565b6106c8565b005b34801561020d57600080fd5b5061022860048036038101906102239190612aeb565b610850565b005b34801561023657600080fd5b50610251600480360381019061024c9190612d2d565b61089c565b60405161026093929190612d69565b60405180910390f35b34801561027557600080fd5b50610290600480360381019061028b9190612aeb565b6108e6565b60405161029d9190612dbb565b60405180910390f35b3480156102b257600080fd5b506102cd60048036038101906102c89190612aeb565b61093c565b6040516102e1989796959493929190612dd6565b60405180910390f35b3480156102f657600080fd5b506102ff6109fe565b005b34801561030d57600080fd5b5061032860048036038101906103239190612aeb565b610b93565b005b34801561033657600080fd5b50610351600480360381019061034c9190612d2d565b610c41565b60405161035e9190612e54565b60405180910390f35b34801561037357600080fd5b5061037c610c65565b6040516103899190612d12565b60405180910390f35b34801561039e57600080fd5b506103a7610c8e565b005b3480156103b557600080fd5b506103d060048036038101906103cb9190612d2d565b610df6565b6040516103de929190612e6f565b60405180910390f35b3480156103f357600080fd5b5061040e60048036038101906104099190612ed4565b610e27565b005b34801561041c57600080fd5b5061043760048036038101906104329190612aeb565b610e53565b6040516104449190612dbb565b60405180910390f35b34801561045957600080fd5b50610462610e73565b005b34801561047057600080fd5b5061048b60048036038101906104869190612aeb565b610ef4565b005b34801561049957600080fd5b506104b460048036038101906104af9190612d2d565b610f90565b6040516104c393929190612fbf565b60405180910390f35b3480156104d857600080fd5b506104f360048036038101906104ee9190612aeb565b6110aa565b60405161050091906130bd565b60405180910390f35b610523600480360381019061051e9190613105565b61125a565b005b34801561053157600080fd5b5061054c60048036038101906105479190612aeb565b6119cc565b005b34801561055a57600080fd5b5061057560048036038101906105709190613180565b6119e0565b6040516105829190612e54565b60405180910390f35b34801561059757600080fd5b506105a0611a02565b6040516105ad9190612e54565b60405180910390f35b6105be611a08565b806004600a6101000a81548173ffffffffffffffffffffffffffffffffffffffff021916908373ffffffffffffffffffffffffffffffffffffffff16021790555050565b7f000000000000000000000000000000000000000000000000000000000000000073ffffffffffffffffffffffffffffffffffffffff163373ffffffffffffffffffffffffffffffffffffffff1614610690576040517f08c379a00000000000000000000000000000000000000000000000000000000081526004016106879061321d565b60405180910390fd5b61069a8282611a98565b5050565b60006004600a9054906101000a900473ffffffffffffffffffffffffffffffffffffffff16905090565b6106d0611a08565b80600b60006101000a81548173ffffffffffffffffffffffffffffffffffffffff021916908373ffffffffffffffffffffffffffffffffffffffff160217905550600b60009054906101000a900473ffffffffffffffffffffffffffffffffffffffff1673ffffffffffffffffffffffffffffffffffffffff1663a9059cbb33600b60009054906101000a900473ffffffffffffffffffffffffffffffffffffffff1673ffffffffffffffffffffffffffffffffffffffff166370a08231306040518263ffffffff1660e01b81526004016107ab9190612d12565b602060405180830381865afa1580156107c8573d6000803e3d6000fd5b505050506040513d601f19601f820116820180604052508101906107ec9190613252565b6040518363ffffffff1660e01b815260040161080992919061327f565b6020604051808303816000875af1158015610828573d6000803e3d6000fd5b505050506040513d601f19601f8201168201806040525081019061084c91906132bd565b5050565b610858611a08565b80600c60006101000a81548173ffffffffffffffffffffffffffffffffffffffff021916908373ffffffffffffffffffffffffffffffffffffffff16021790555050565b60086020528060005260406000206000915090508060000154908060010154908060020160009054906101000a900473ffffffffffffffffffffffffffffffffffffffff16905083565b6000600960008373ffffffffffffffffffffffffffffffffffffffff1673ffffffffffffffffffffffffffffffffffffffff16815260200190815260200160002060009054906101000a900460ff169050919050565b60076020528060005260406000206000915090508060000154908060010154908060020154908060030160009054906101000a900473ffffffffffffffffffffffffffffffffffffffff16908060030160149054906101000a900460ff16908060040160009054906101000a900473ffffffffffffffffffffffffffffffffffffffff16908060050160009054906101000a900473ffffffffffffffffffffffffffffffffffffffff16908060050160149054906101000a900460ff16905088565b600160009054906101000a900473ffffffffffffffffffffffffffffffffffffffff1673ffffffffffffffffffffffffffffffffffffffff163373ffffffffffffffffffffffffffffffffffffffff1614610a8e576040517f08c379a0000000000000000000000000000000000000000000000000000000008152600401610a8590613336565b60405180910390fd5b60008060009054906101000a900473ffffffffffffffffffffffffffffffffffffffff169050336000806101000a81548173ffffffffffffffffffffffffffffffffffffffff021916908373ffffffffffffffffffffffffffffffffffffffff1602179055506000600160006101000a81548173ffffffffffffffffffffffffffffffffffffffff021916908373ffffffffffffffffffffffffffffffffffffffff1602179055503373ffffffffffffffffffffffffffffffffffffffff168173ffffffffffffffffffffffffffffffffffffffff167f8be0079c531659141344cd1fd0a4f28419497f9722a3daafe3b4186f6b6457e060405160405180910390a350565b610b9b611a08565b6000600760008373ffffffffffffffffffffffffffffffffffffffff1673ffffffffffffffffffffffffffffffffffffffff16815260200190815260200160002060030160146101000a81548160ff0219169083151502179055506000600760008373ffffffffffffffffffffffffffffffffffffffff1673ffffffffffffffffffffffffffffffffffffffff1681526020019081526020016000206001018190555050565b60028181548110610c5157600080fd5b906000526020600020016000915090505481565b60008060009054906101000a900473ffffffffffffffffffffffffffffffffffffffff16905090565b610c96611a08565b6000600560009054906101000a900473ffffffffffffffffffffffffffffffffffffffff1690508073ffffffffffffffffffffffffffffffffffffffff1663a9059cbb338373ffffffffffffffffffffffffffffffffffffffff166370a08231306040518263ffffffff1660e01b8152600401610d139190612d12565b602060405180830381865afa158015610d30573d6000803e3d6000fd5b505050506040513d601f19601f82011682018060405250810190610d549190613252565b6040518363ffffffff1660e01b8152600401610d7192919061327f565b6020604051808303816000875af1158015610d90573d6000803e3d6000fd5b505050506040513d601f19601f82011682018060405250810190610db491906132bd565b610df3576040517f08c379a0000000000000000000000000000000000000000000000000000000008152600401610dea906133a2565b60405180910390fd5b50565b600a6020528060005260406000206000915090508060000154908060010160009054906101000a900460ff16905082565b610e2f611a08565b80600460006101000a81548163ffffffff021916908363ffffffff16021790555050565b60096020528060005260406000206000915054906101000a900460ff1681565b610e7b611a08565b60003373ffffffffffffffffffffffffffffffffffffffff1647604051610ea1906133f3565b60006040518083038185875af1925050503d8060008114610ede576040519150601f19603f3d011682016040523d82523d6000602084013e610ee3565b606091505b5050905080610ef157600080fd5b50565b610efc611a08565b600073ffffffffffffffffffffffffffffffffffffffff168173ffffffffffffffffffffffffffffffffffffffff1603610f3557600080fd5b6001600960008373ffffffffffffffffffffffffffffffffffffffff1673ffffffffffffffffffffffffffffffffffffffff16815260200190815260200160002060006101000a81548160ff02191690831515021790555050565b60008060606000600a60008681526020019081526020016000206000015411610fee576040517f08c379a0000000000000000000000000000000000000000000000000000000008152600401610fe590613454565b60405180910390fd5b6000600a6000868152602001908152602001600020604051806060016040529081600082015481526020016001820160009054906101000a900460ff161515151581526020016002820180548060200260200160405190810160405280929190818152602001828054801561108257602002820191906000526020600020905b81548152602001906001019080831161106e575b5050505050815250509050806000015181602001518260400151935093509350509193909250565b6110b2612984565b600760008373ffffffffffffffffffffffffffffffffffffffff1673ffffffffffffffffffffffffffffffffffffffff168152602001908152602001600020604051806101000160405290816000820154815260200160018201548152602001600282015481526020016003820160009054906101000a900473ffffffffffffffffffffffffffffffffffffffff1673ffffffffffffffffffffffffffffffffffffffff1673ffffffffffffffffffffffffffffffffffffffff1681526020016003820160149054906101000a900460ff161515151581526020016004820160009054906101000a900473ffffffffffffffffffffffffffffffffffffffff1673ffffffffffffffffffffffffffffffffffffffff1673ffffffffffffffffffffffffffffffffffffffff1681526020016005820160009054906101000a900473ffffffffffffffffffffffffffffffffffffffff1673ffffffffffffffffffffffffffffffffffffffff1673ffffffffffffffffffffffffffffffffffffffff1681526020016005820160149054906101000a900460ff1615151515815250509050919050565b600760003373ffffffffffffffffffffffffffffffffffffffff1673ffffffffffffffffffffffffffffffffffffffff16815260200190815260200160002060030160149054906101000a900460ff16156112ea576040517f08c379a00000000000000000000000000000000000000000000000000000000081526004016112e1906134e6565b60405180910390fd5b60008514806112f95750600185145b611338576040517f08c379a000000000000000000000000000000000000000000000000000000000815260040161132f90613578565b60405180910390fd5b6000821161137b576040517f08c379a0000000000000000000000000000000000000000000000000000000008152600401611372906135e4565b60405180910390fd5b8061163257600960008573ffffffffffffffffffffffffffffffffffffffff1673ffffffffffffffffffffffffffffffffffffffff16815260200190815260200160002060009054906101000a900460ff1661140c576040517f08c379a000000000000000000000000000000000000000000000000000000000815260040161140390613676565b60405180910390fd5b600261141785611c12565b61142191906136f4565b821115611463576040517f08c379a000000000000000000000000000000000000000000000000000000000815260040161145a90613797565b60405180910390fd5b83600b60006101000a81548173ffffffffffffffffffffffffffffffffffffffff021916908373ffffffffffffffffffffffffffffffffffffffff1602179055506000600b60009054906101000a900473ffffffffffffffffffffffffffffffffffffffff1673ffffffffffffffffffffffffffffffffffffffff1663dd62ed3e33306040518363ffffffff1660e01b81526004016115039291906137b7565b602060405180830381865afa158015611520573d6000803e3d6000fd5b505050506040513d601f19601f820116820180604052508101906115449190613252565b905082811015611589576040517f08c379a00000000000000000000000000000000000000000000000000000000081526004016115809061382c565b60405180910390fd5b600b60009054906101000a900473ffffffffffffffffffffffffffffffffffffffff1673ffffffffffffffffffffffffffffffffffffffff166323b872dd3330866040518463ffffffff1660e01b81526004016115e89392919061384c565b6020604051808303816000875af1158015611607573d6000803e3d6000fd5b505050506040513d601f19601f8201168201806040525081019061162b91906132bd565b5050611682565b60024761163f91906136f4565b341115611681576040517f08c379a0000000000000000000000000000000000000000000000000000000008152600401611678906138cf565b60405180910390fd5b5b33600760003373ffffffffffffffffffffffffffffffffffffffff1673ffffffffffffffffffffffffffffffffffffffff16815260200190815260200160002060030160006101000a81548173ffffffffffffffffffffffffffffffffffffffff021916908373ffffffffffffffffffffffffffffffffffffffff16021790555084600760003373ffffffffffffffffffffffffffffffffffffffff1673ffffffffffffffffffffffffffffffffffffffff168152602001908152602001600020600201819055506001600760003373ffffffffffffffffffffffffffffffffffffffff1673ffffffffffffffffffffffffffffffffffffffff16815260200190815260200160002060030160146101000a81548160ff02191690831515021790555081600760003373ffffffffffffffffffffffffffffffffffffffff1673ffffffffffffffffffffffffffffffffffffffff1681526020019081526020016000206001018190555083600760003373ffffffffffffffffffffffffffffffffffffffff1673ffffffffffffffffffffffffffffffffffffffff16815260200190815260200160002060050160006101000a81548173ffffffffffffffffffffffffffffffffffffffff021916908373ffffffffffffffffffffffffffffffffffffffff16021790555082600760003373ffffffffffffffffffffffffffffffffffffffff1673ffffffffffffffffffffffffffffffffffffffff16815260200190815260200160002060040160006101000a81548173ffffffffffffffffffffffffffffffffffffffff021916908373ffffffffffffffffffffffffffffffffffffffff16021790555080600760003373ffffffffffffffffffffffffffffffffffffffff1673ffffffffffffffffffffffffffffffffffffffff16815260200190815260200160002060050160146101000a81548160ff0219169083151502179055506000611952611cf8565b9050336008600083815260200190815260200160002060020160006101000a81548173ffffffffffffffffffffffffffffffffffffffff021916908373ffffffffffffffffffffffffffffffffffffffff160217905550806008600083815260200190815260200160002060000181905550505050505050565b6119d4611a08565b6119dd81611edb565b50565b6000606482846119f091906138ef565b6119fa91906136f4565b905092915050565b60035481565b60008054906101000a900473ffffffffffffffffffffffffffffffffffffffff1673ffffffffffffffffffffffffffffffffffffffff163373ffffffffffffffffffffffffffffffffffffffff1614611a96576040517f08c379a0000000000000000000000000000000000000000000000000000000008152600401611a8d9061397d565b60405180910390fd5b565b6000600a60008481526020019081526020016000206000015411611af1576040517f08c379a0000000000000000000000000000000000000000000000000000000008152600401611ae890613454565b60405180910390fd5b6000806000806001600a600088815260200190815260200160002060010160006101000a81548160ff02191690831515021790555084600a60008881526020019081526020016000206002019080519060200190611b50929190612a0f565b506000600286600081518110611b6957611b6861399d565b5b6020026020010151611b7b91906139cc565b9050806008600089815260200190815260200160002060010181905550611ba28188612007565b80955081965082975083985050505050828573ffffffffffffffffffffffffffffffffffffffff167fecca475f0dff1f06a2a102659c262389e5889e7b60569bc3bd223fca2d534a578685428c8c604051611c019594939291906139fd565b60405180910390a350505050505050565b600081600b60006101000a81548173ffffffffffffffffffffffffffffffffffffffff021916908373ffffffffffffffffffffffffffffffffffffffff160217905550600b60009054906101000a900473ffffffffffffffffffffffffffffffffffffffff1673ffffffffffffffffffffffffffffffffffffffff166370a08231306040518263ffffffff1660e01b8152600401611cb09190612d12565b602060405180830381865afa158015611ccd573d6000803e3d6000fd5b505050506040513d601f19601f82011682018060405250810190611cf19190613252565b9050919050565b6000611d37600460009054906101000a900463ffffffff1660048054906101000a900461ffff16600460069054906101000a900463ffffffff1661276d565b905060405180606001604052807f000000000000000000000000000000000000000000000000000000000000000073ffffffffffffffffffffffffffffffffffffffff16634306d354600460009054906101000a900463ffffffff166040518263ffffffff1660e01b8152600401611daf9190613a66565b602060405180830381865afa158015611dcc573d6000803e3d6000fd5b505050506040513d601f19601f82011682018060405250810190611df09190613252565b8152602001600015158152602001600067ffffffffffffffff811115611e1957611e18612b64565b5b604051908082528060200260200182016040528015611e475781602001602082028036833780820191505090505b50815250600a60008381526020019081526020016000206000820151816000015560208201518160010160006101000a81548160ff0219169083151502179055506040820151816002019080519060200190611ea4929190612a0f565b5090505060028190806001815401808255809150506001900390600052602060002001600090919091909150558060038190555090565b3373ffffffffffffffffffffffffffffffffffffffff168173ffffffffffffffffffffffffffffffffffffffff1603611f49576040517f08c379a0000000000000000000000000000000000000000000000000000000008152600401611f4090613acd565b60405180910390fd5b80600160006101000a81548173ffffffffffffffffffffffffffffffffffffffff021916908373ffffffffffffffffffffffffffffffffffffffff1602179055508073ffffffffffffffffffffffffffffffffffffffff1660008054906101000a900473ffffffffffffffffffffffffffffffffffffffff1673ffffffffffffffffffffffffffffffffffffffff167fed8889f560326eb138920d842192f0eb3dd22b4f139c87a2c57538e05bae127860405160405180910390a350565b60008060008060006008600087815260200190815260200160002060020160009054906101000a900473ffffffffffffffffffffffffffffffffffffffff169050600080600080600760008673ffffffffffffffffffffffffffffffffffffffff1673ffffffffffffffffffffffffffffffffffffffff1681526020019081526020016000206001015490506000600760008773ffffffffffffffffffffffffffffffffffffffff1673ffffffffffffffffffffffffffffffffffffffff16815260200190815260200160002060050160009054906101000a900473ffffffffffffffffffffffffffffffffffffffff16905080600b60006101000a81548173ffffffffffffffffffffffffffffffffffffffff021916908373ffffffffffffffffffffffffffffffffffffffff1602179055508b600760008873ffffffffffffffffffffffffffffffffffffffff1673ffffffffffffffffffffffffffffffffffffffff168152602001908152602001600020600201540361249757600061219183605f6119e0565b9050808361219f9190613aed565b93506002816121ae91906138ef565b94506002846121bd91906138ef565b9350600760008873ffffffffffffffffffffffffffffffffffffffff1673ffffffffffffffffffffffffffffffffffffffff16815260200190815260200160002060050160149054906101000a900460ff1661237c57600b60009054906101000a900473ffffffffffffffffffffffffffffffffffffffff1673ffffffffffffffffffffffffffffffffffffffff1663a9059cbb88876040518363ffffffff1660e01b815260040161227092919061327f565b6020604051808303816000875af115801561228f573d6000803e3d6000fd5b505050506040513d601f19601f820116820180604052508101906122b391906132bd565b50600b60009054906101000a900473ffffffffffffffffffffffffffffffffffffffff1673ffffffffffffffffffffffffffffffffffffffff1663a9059cbb6004600a9054906101000a900473ffffffffffffffffffffffffffffffffffffffff16866040518363ffffffff1660e01b815260040161233392919061327f565b6020604051808303816000875af1158015612352573d6000803e3d6000fd5b505050506040513d601f19601f8201168201806040525081019061237691906132bd565b5061248d565b60008773ffffffffffffffffffffffffffffffffffffffff16866040516123a2906133f3565b60006040518083038185875af1925050503d80600081146123df576040519150601f19603f3d011682016040523d82523d6000602084013e6123e4565b606091505b50509050806123f257600080fd5b60006004600a9054906101000a900473ffffffffffffffffffffffffffffffffffffffff1673ffffffffffffffffffffffffffffffffffffffff168660405161243a906133f3565b60006040518083038185875af1925050503d8060008114612477576040519150601f19603f3d011682016040523d82523d6000602084013e61247c565b606091505b505090508061248a57600080fd5b50505b6001955050612662565b60006124a48360056119e0565b9050600760008873ffffffffffffffffffffffffffffffffffffffff1673ffffffffffffffffffffffffffffffffffffffff16815260200190815260200160002060050160149054906101000a900460ff166125c257600b60009054906101000a900473ffffffffffffffffffffffffffffffffffffffff1673ffffffffffffffffffffffffffffffffffffffff1663a9059cbb6004600a9054906101000a900473ffffffffffffffffffffffffffffffffffffffff16836040518363ffffffff1660e01b815260040161257992919061327f565b6020604051808303816000875af1158015612598573d6000803e3d6000fd5b505050506040513d601f19601f820116820180604052508101906125bc91906132bd565b5061265c565b60006004600a9054906101000a900473ffffffffffffffffffffffffffffffffffffffff1673ffffffffffffffffffffffffffffffffffffffff168260405161260a906133f3565b60006040518083038185875af1925050503d8060008114612647576040519150601f19603f3d011682016040523d82523d6000602084013e61264c565b606091505b505090508061265a57600080fd5b505b60009550505b6000600760008873ffffffffffffffffffffffffffffffffffffffff1673ffffffffffffffffffffffffffffffffffffffff168152602001908152602001600020600101819055506000600760008873ffffffffffffffffffffffffffffffffffffffff1673ffffffffffffffffffffffffffffffffffffffff16815260200190815260200160002060030160146101000a81548160ff021916908315150217905550600860008c815260200190815260200160002060008082016000905560018201600090556002820160006101000a81549073ffffffffffffffffffffffffffffffffffffffff0219169055505085858584995099509950995050505050505092959194509250565b60007f000000000000000000000000000000000000000000000000000000000000000073ffffffffffffffffffffffffffffffffffffffff16634000aea07f00000000000000000000000000000000000000000000000000000000000000007f000000000000000000000000000000000000000000000000000000000000000073ffffffffffffffffffffffffffffffffffffffff16634306d354886040518263ffffffff1660e01b81526004016128259190613a66565b602060405180830381865afa158015612842573d6000803e3d6000fd5b505050506040513d601f19601f820116820180604052508101906128669190613252565b87878760405160200161287b93929190613b3e565b6040516020818303038152906040526040518463ffffffff1660e01b81526004016128a893929190613bf4565b6020604051808303816000875af11580156128c7573d6000803e3d6000fd5b505050506040513d601f19601f820116820180604052508101906128eb91906132bd565b507f000000000000000000000000000000000000000000000000000000000000000073ffffffffffffffffffffffffffffffffffffffff1663fc2a88c36040518163ffffffff1660e01b8152600401602060405180830381865afa158015612957573d6000803e3d6000fd5b505050506040513d601f19601f8201168201806040525081019061297b9190613252565b90509392505050565b604051806101000160405280600081526020016000815260200160008152602001600073ffffffffffffffffffffffffffffffffffffffff168152602001600015158152602001600073ffffffffffffffffffffffffffffffffffffffff168152602001600073ffffffffffffffffffffffffffffffffffffffff1681526020016000151581525090565b828054828255906000526020600020908101928215612a4b579160200282015b82811115612a4a578251825591602001919060010190612a2f565b5b509050612a589190612a5c565b5090565b5b80821115612a75576000816000905550600101612a5d565b5090565b6000604051905090565b600080fd5b600080fd5b600073ffffffffffffffffffffffffffffffffffffffff82169050919050565b6000612ab882612a8d565b9050919050565b612ac881612aad565b8114612ad357600080fd5b50565b600081359050612ae581612abf565b92915050565b600060208284031215612b0157612b00612a83565b5b6000612b0f84828501612ad6565b91505092915050565b6000819050919050565b612b2b81612b18565b8114612b3657600080fd5b50565b600081359050612b4881612b22565b92915050565b600080fd5b6000601f19601f8301169050919050565b7f4e487b7100000000000000000000000000000000000000000000000000000000600052604160045260246000fd5b612b9c82612b53565b810181811067ffffffffffffffff82111715612bbb57612bba612b64565b5b80604052505050565b6000612bce612a79565b9050612bda8282612b93565b919050565b600067ffffffffffffffff821115612bfa57612bf9612b64565b5b602082029050602081019050919050565b600080fd5b6000612c23612c1e84612bdf565b612bc4565b90508083825260208201905060208402830185811115612c4657612c45612c0b565b5b835b81811015612c6f5780612c5b8882612b39565b845260208401935050602081019050612c48565b5050509392505050565b600082601f830112612c8e57612c8d612b4e565b5b8135612c9e848260208601612c10565b91505092915050565b60008060408385031215612cbe57612cbd612a83565b5b6000612ccc85828601612b39565b925050602083013567ffffffffffffffff811115612ced57612cec612a88565b5b612cf985828601612c79565b9150509250929050565b612d0c81612aad565b82525050565b6000602082019050612d276000830184612d03565b92915050565b600060208284031215612d4357612d42612a83565b5b6000612d5184828501612b39565b91505092915050565b612d6381612b18565b82525050565b6000606082019050612d7e6000830186612d5a565b612d8b6020830185612d5a565b612d986040830184612d03565b949350505050565b60008115159050919050565b612db581612da0565b82525050565b6000602082019050612dd06000830184612dac565b92915050565b600061010082019050612dec600083018b612d5a565b612df9602083018a612d5a565b612e066040830189612d5a565b612e136060830188612d03565b612e206080830187612dac565b612e2d60a0830186612d03565b612e3a60c0830185612d03565b612e4760e0830184612dac565b9998505050505050505050565b6000602082019050612e696000830184612d5a565b92915050565b6000604082019050612e846000830185612d5a565b612e916020830184612dac565b9392505050565b600063ffffffff82169050919050565b612eb181612e98565b8114612ebc57600080fd5b50565b600081359050612ece81612ea8565b92915050565b600060208284031215612eea57612ee9612a83565b5b6000612ef884828501612ebf565b91505092915050565b600081519050919050565b600082825260208201905092915050565b6000819050602082019050919050565b612f3681612b18565b82525050565b6000612f488383612f2d565b60208301905092915050565b6000602082019050919050565b6000612f6c82612f01565b612f768185612f0c565b9350612f8183612f1d565b8060005b83811015612fb2578151612f998882612f3c565b9750612fa483612f54565b925050600181019050612f85565b5085935050505092915050565b6000606082019050612fd46000830186612d5a565b612fe16020830185612dac565b8181036040830152612ff38184612f61565b9050949350505050565b61300681612aad565b82525050565b61301581612da0565b82525050565b610100820160008201516130326000850182612f2d565b5060208201516130456020850182612f2d565b5060408201516130586040850182612f2d565b50606082015161306b6060850182612ffd565b50608082015161307e608085018261300c565b5060a082015161309160a0850182612ffd565b5060c08201516130a460c0850182612ffd565b5060e08201516130b760e085018261300c565b50505050565b6000610100820190506130d3600083018461301b565b92915050565b6130e281612da0565b81146130ed57600080fd5b50565b6000813590506130ff816130d9565b92915050565b600080600080600060a0868803121561312157613120612a83565b5b600061312f88828901612b39565b955050602061314088828901612ad6565b945050604061315188828901612ad6565b935050606061316288828901612b39565b9250506080613173888289016130f0565b9150509295509295909350565b6000806040838503121561319757613196612a83565b5b60006131a585828601612b39565b92505060206131b685828601612b39565b9150509250929050565b600082825260208201905092915050565b7f6f6e6c792056524620563220777261707065722063616e2066756c66696c6c00600082015250565b6000613207601f836131c0565b9150613212826131d1565b602082019050919050565b60006020820190508181036000830152613236816131fa565b9050919050565b60008151905061324c81612b22565b92915050565b60006020828403121561326857613267612a83565b5b60006132768482850161323d565b91505092915050565b60006040820190506132946000830185612d03565b6132a16020830184612d5a565b9392505050565b6000815190506132b7816130d9565b92915050565b6000602082840312156132d3576132d2612a83565b5b60006132e1848285016132a8565b91505092915050565b7f4d7573742062652070726f706f736564206f776e657200000000000000000000600082015250565b60006133206016836131c0565b915061332b826132ea565b602082019050919050565b6000602082019050818103600083015261334f81613313565b9050919050565b7f556e61626c6520746f207472616e736665720000000000000000000000000000600082015250565b600061338c6012836131c0565b915061339782613356565b602082019050919050565b600060208201905081810360008301526133bb8161337f565b9050919050565b600081905092915050565b50565b60006133dd6000836133c2565b91506133e8826133cd565b600082019050919050565b60006133fe826133d0565b9150819050919050565b7f72657175657374206e6f7420666f756e64000000000000000000000000000000600082015250565b600061343e6011836131c0565b915061344982613408565b602082019050919050565b6000602082019050818103600083015261346d81613431565b9050919050565b7f4372617a79466c69703a204164647265737320616c726561647920617320616e60008201527f20416374697665204265742063757272656e746c79206f6e676f696e67000000602082015250565b60006134d0603d836131c0565b91506134db82613474565b604082019050919050565b600060208201905081810360008301526134ff816134c3565b9050919050565b7f4372617a79466c69703a20496e76616c6964204265742063686f69636520707260008201527f6f76696465640000000000000000000000000000000000000000000000000000602082015250565b60006135626026836131c0565b915061356d82613506565b604082019050919050565b6000602082019050818103600083015261359181613555565b9050919050565b7f41646420616d6f756e7420746f20626574000000000000000000000000000000600082015250565b60006135ce6011836131c0565b91506135d982613598565b602082019050919050565b600060208201905081810360008301526135fd816135c1565b9050919050565b7f4372617a79466c69703a20546f6b656e2063686f696365206973206e6f74206560008201527f6e61626c65640000000000000000000000000000000000000000000000000000602082015250565b60006136606026836131c0565b915061366b82613604565b604082019050919050565b6000602082019050818103600083015261368f81613653565b9050919050565b7f4e487b7100000000000000000000000000000000000000000000000000000000600052601260045260246000fd5b7f4e487b7100000000000000000000000000000000000000000000000000000000600052601160045260246000fd5b60006136ff82612b18565b915061370a83612b18565b92508261371a57613719613696565b5b828204905092915050565b7f4372617a79466c69703a20496e73756666696369656e74205072697a6520506f60008201527f6f6c2042616c616e636520666f7220746869732042657420416d6f756e740000602082015250565b6000613781603e836131c0565b915061378c82613725565b604082019050919050565b600060208201905081810360008301526137b081613774565b9050919050565b60006040820190506137cc6000830185612d03565b6137d96020830184612d03565b9392505050565b7f496e73756666696369656e74207370656e64696e6720616d6f756e7400000000600082015250565b6000613816601c836131c0565b9150613821826137e0565b602082019050919050565b6000602082019050818103600083015261384581613809565b9050919050565b60006060820190506138616000830186612d03565b61386e6020830185612d03565b61387b6040830184612d5a565b949350505050565b7f496e73756666696369656e740000000000000000000000000000000000000000600082015250565b60006138b9600c836131c0565b91506138c482613883565b602082019050919050565b600060208201905081810360008301526138e8816138ac565b9050919050565b60006138fa82612b18565b915061390583612b18565b925082820261391381612b18565b9150828204841483151761392a576139296136c5565b5b5092915050565b7f4f6e6c792063616c6c61626c65206279206f776e657200000000000000000000600082015250565b60006139676016836131c0565b915061397282613931565b602082019050919050565b600060208201905081810360008301526139968161395a565b9050919050565b7f4e487b7100000000000000000000000000000000000000000000000000000000600052603260045260246000fd5b60006139d782612b18565b91506139e283612b18565b9250826139f2576139f1613696565b5b828206905092915050565b600060a082019050613a126000830188612dac565b613a1f6020830187612d5a565b613a2c6040830186612d5a565b613a396060830185612d5a565b8181036080830152613a4b8184612f61565b90509695505050505050565b613a6081612e98565b82525050565b6000602082019050613a7b6000830184613a57565b92915050565b7f43616e6e6f74207472616e7366657220746f2073656c66000000000000000000600082015250565b6000613ab76017836131c0565b9150613ac282613a81565b602082019050919050565b60006020820190508181036000830152613ae681613aaa565b9050919050565b6000613af882612b18565b9150613b0383612b18565b9250828203905081811115613b1b57613b1a6136c5565b5b92915050565b600061ffff82169050919050565b613b3881613b21565b82525050565b6000606082019050613b536000830186613a57565b613b606020830185613b2f565b613b6d6040830184613a57565b949350505050565b600081519050919050565b600082825260208201905092915050565b60005b83811015613baf578082015181840152602081019050613b94565b60008484015250505050565b6000613bc682613b75565b613bd08185613b80565b9350613be0818560208601613b91565b613be981612b53565b840191505092915050565b6000606082019050613c096000830186612d03565b613c166020830185612d5a565b8181036040830152613c288184613bbb565b905094935050505056fea26469706673582212208c2ff25037a8055bd68547e717541e0512de95d0c1c46b9aac862bab6234888464736f6c63430008120033",
	"linkReferences": {},
	"deployedLinkReferences": {}
}