{
	"_format": "hh-sol-artifact-1",
	"contractName": "CrazyFlip",
	"sourceName": "contracts/CrazyFlip.sol",
	"abi": [
		{
			"inputs": [],
			"stateMutability": "payable",
			"type": "constructor"
		},
		{
			"anonymous": false,
			"inputs": [
				{
					"indexed": true,
					"internalType": "address",
					"name": "player",
					"type": "address"
				},
				{
					"indexed": false,
					"internalType": "bool",
					"name": "victory",
					"type": "bool"
				},
				{
					"indexed": false,
					"internalType": "uint256",
					"name": "amount",
					"type": "uint256"
				}
			],
			"name": "BetResult",
			"type": "event"
		},
		{
			"anonymous": false,
			"inputs": [
				{
					"indexed": true,
					"internalType": "address",
					"name": "from",
					"type": "address"
				},
				{
					"indexed": true,
					"internalType": "address",
					"name": "to",
					"type": "address"
				}
			],
			"name": "OwnershipTransferRequested",
			"type": "event"
		},
		{
			"anonymous": false,
			"inputs": [
				{
					"indexed": true,
					"internalType": "address",
					"name": "from",
					"type": "address"
				},
				{
					"indexed": true,
					"internalType": "address",
					"name": "to",
					"type": "address"
				}
			],
			"name": "OwnershipTransferred",
			"type": "event"
		},
		{
			"anonymous": false,
			"inputs": [
				{
					"indexed": true,
					"internalType": "address",
					"name": "player",
					"type": "address"
				},
				{
					"indexed": false,
					"internalType": "bool",
					"name": "victory",
					"type": "bool"
				},
				{
					"indexed": true,
					"internalType": "uint256",
					"name": "amount",
					"type": "uint256"
				},
				{
					"indexed": false,
					"internalType": "uint256",
					"name": "betAmount",
					"type": "uint256"
				},
				{
					"indexed": false,
					"internalType": "uint256",
					"name": "timestamp",
					"type": "uint256"
				},
				{
					"indexed": false,
					"internalType": "uint256",
					"name": "requestId",
					"type": "uint256"
				},
				{
					"indexed": false,
					"internalType": "uint256[]",
					"name": "randomWords",
					"type": "uint256[]"
				}
			],
			"name": "RequestFulfilled",
			"type": "event"
		},
		{
			"inputs": [],
			"name": "acceptOwnership",
			"outputs": [],
			"stateMutability": "nonpayable",
			"type": "function"
		},
		{
			"inputs": [
				{
					"internalType": "uint256",
					"name": "_betChoice",
					"type": "uint256"
				},
				{
					"internalType": "address",
					"name": "tokenAddress",
					"type": "address"
				},
				{
					"internalType": "address",
					"name": "affiliate",
					"type": "address"
				},
				{
					"internalType": "uint256",
					"name": "betAmount",
					"type": "uint256"
				},
				{
					"internalType": "bool",
					"name": "mainnet",
					"type": "bool"
				}
			],
			"name": "bet",
			"outputs": [],
			"stateMutability": "payable",
			"type": "function"
		},
		{
			"inputs": [
				{
					"internalType": "address",
					"name": "tokenAddress",
					"type": "address"
				}
			],
			"name": "enableToken",
			"outputs": [],
			"stateMutability": "nonpayable",
			"type": "function"
		},
		{
			"inputs": [
				{
					"internalType": "address",
					"name": "",
					"type": "address"
				}
			],
			"name": "enabledTokens",
			"outputs": [
				{
					"internalType": "bool",
					"name": "",
					"type": "bool"
				}
			],
			"stateMutability": "view",
			"type": "function"
		},
		{
			"inputs": [
				{
					"internalType": "uint256",
					"name": "amount",
					"type": "uint256"
				},
				{
					"internalType": "uint256",
					"name": "percentage",
					"type": "uint256"
				}
			],
			"name": "getPercentage",
			"outputs": [
				{
					"internalType": "uint256",
					"name": "",
					"type": "uint256"
				}
			],
			"stateMutability": "pure",
			"type": "function"
		},
		{
			"inputs": [
				{
					"internalType": "address",
					"name": "_address",
					"type": "address"
				}
			],
			"name": "getPlayersByAddress",
			"outputs": [
				{
					"components": [
						{
							"internalType": "uint256",
							"name": "balance",
							"type": "uint256"
						},
						{
							"internalType": "uint256",
							"name": "betAmount",
							"type": "uint256"
						},
						{
							"internalType": "uint256",
							"name": "betChoice",
							"type": "uint256"
						},
						{
							"internalType": "address",
							"name": "playerAddress",
							"type": "address"
						},
						{
							"internalType": "bool",
							"name": "betOngoing",
							"type": "bool"
						},
						{
							"internalType": "address",
							"name": "affiliate",
							"type": "address"
						},
						{
							"internalType": "address",
							"name": "tokenAddress",
							"type": "address"
						},
						{
							"internalType": "bool",
							"name": "atMainnet",
							"type": "bool"
						}
					],
					"internalType": "struct CrazyFlip.Flip",
					"name": "",
					"type": "tuple"
				}
			],
			"stateMutability": "view",
			"type": "function"
		},
		{
			"inputs": [
				{
					"internalType": "uint256",
					"name": "_requestId",
					"type": "uint256"
				}
			],
			"name": "getRequestStatus",
			"outputs": [
				{
					"internalType": "uint256",
					"name": "paid",
					"type": "uint256"
				},
				{
					"internalType": "bool",
					"name": "fulfilled",
					"type": "bool"
				},
				{
					"internalType": "uint256[]",
					"name": "randomWords",
					"type": "uint256[]"
				}
			],
			"stateMutability": "view",
			"type": "function"
		},
		{
			"inputs": [],
			"name": "getSkimAddress",
			"outputs": [
				{
					"internalType": "address",
					"name": "",
					"type": "address"
				}
			],
			"stateMutability": "view",
			"type": "function"
		},
		{
			"inputs": [
				{
					"internalType": "address",
					"name": "tokenAddress",
					"type": "address"
				}
			],
			"name": "isTokenEnabled",
			"outputs": [
				{
					"internalType": "bool",
					"name": "",
					"type": "bool"
				}
			],
			"stateMutability": "view",
			"type": "function"
		},
		{
			"inputs": [],
			"name": "lastRequestId",
			"outputs": [
				{
					"internalType": "uint256",
					"name": "",
					"type": "uint256"
				}
			],
			"stateMutability": "view",
			"type": "function"
		},
		{
			"inputs": [],
			"name": "owner",
			"outputs": [
				{
					"internalType": "address",
					"name": "",
					"type": "address"
				}
			],
			"stateMutability": "view",
			"type": "function"
		},
		{
			"inputs": [
				{
					"internalType": "address",
					"name": "",
					"type": "address"
				}
			],
			"name": "playersByAddress",
			"outputs": [
				{
					"internalType": "uint256",
					"name": "balance",
					"type": "uint256"
				},
				{
					"internalType": "uint256",
					"name": "betAmount",
					"type": "uint256"
				},
				{
					"internalType": "uint256",
					"name": "betChoice",
					"type": "uint256"
				},
				{
					"internalType": "address",
					"name": "playerAddress",
					"type": "address"
				},
				{
					"internalType": "bool",
					"name": "betOngoing",
					"type": "bool"
				},
				{
					"internalType": "address",
					"name": "affiliate",
					"type": "address"
				},
				{
					"internalType": "address",
					"name": "tokenAddress",
					"type": "address"
				},
				{
					"internalType": "bool",
					"name": "atMainnet",
					"type": "bool"
				}
			],
			"stateMutability": "view",
			"type": "function"
		},
		{
			"inputs": [
				{
					"internalType": "uint256",
					"name": "_requestId",
					"type": "uint256"
				},
				{
					"internalType": "uint256[]",
					"name": "_randomWords",
					"type": "uint256[]"
				}
			],
			"name": "rawFulfillRandomWords",
			"outputs": [],
			"stateMutability": "nonpayable",
			"type": "function"
		},
		{
			"inputs": [
				{
					"internalType": "uint256",
					"name": "",
					"type": "uint256"
				}
			],
			"name": "requestIds",
			"outputs": [
				{
					"internalType": "uint256",
					"name": "",
					"type": "uint256"
				}
			],
			"stateMutability": "view",
			"type": "function"
		},
		{
			"inputs": [
				{
					"internalType": "uint256",
					"name": "",
					"type": "uint256"
				}
			],
			"name": "s_requests",
			"outputs": [
				{
					"internalType": "uint256",
					"name": "paid",
					"type": "uint256"
				},
				{
					"internalType": "bool",
					"name": "fulfilled",
					"type": "bool"
				}
			],
			"stateMutability": "view",
			"type": "function"
		},
		{
			"inputs": [
				{
					"internalType": "address",
					"name": "_address",
					"type": "address"
				}
			],
			"name": "setAffilateContractAddress",
			"outputs": [],
			"stateMutability": "nonpayable",
			"type": "function"
		},
		{
			"inputs": [
				{
					"internalType": "uint32",
					"name": "gasLimit",
					"type": "uint32"
				}
			],
			"name": "setCallbackGasLimit",
			"outputs": [],
			"stateMutability": "nonpayable",
			"type": "function"
		},
		{
			"inputs": [
				{
					"internalType": "address",
					"name": "_address",
					"type": "address"
				}
			],
			"name": "setPlayerByAddressState",
			"outputs": [],
			"stateMutability": "nonpayable",
			"type": "function"
		},
		{
			"inputs": [
				{
					"internalType": "address",
					"name": "_skimAddress",
					"type": "address"
				}
			],
			"name": "setSkimAddress",
			"outputs": [],
			"stateMutability": "nonpayable",
			"type": "function"
		},
		{
			"inputs": [
				{
					"internalType": "uint256",
					"name": "",
					"type": "uint256"
				}
			],
			"name": "temps",
			"outputs": [
				{
					"internalType": "uint256",
					"name": "id",
					"type": "uint256"
				},
				{
					"internalType": "uint256",
					"name": "result",
					"type": "uint256"
				},
				{
					"internalType": "address",
					"name": "playerAddress",
					"type": "address"
				}
			],
			"stateMutability": "view",
			"type": "function"
		},
		{
			"inputs": [
				{
					"internalType": "address",
					"name": "to",
					"type": "address"
				}
			],
			"name": "transferOwnership",
			"outputs": [],
			"stateMutability": "nonpayable",
			"type": "function"
		},
		{
			"inputs": [],
			"name": "withdrawLink",
			"outputs": [],
			"stateMutability": "nonpayable",
			"type": "function"
		},
		{
			"inputs": [],
			"name": "withdrawMaincoin",
			"outputs": [],
			"stateMutability": "nonpayable",
			"type": "function"
		},
		{
			"inputs": [
				{
					"internalType": "address",
					"name": "tokenAddress",
					"type": "address"
				}
			],
			"name": "withdrawTokens",
			"outputs": [],
			"stateMutability": "nonpayable",
			"type": "function"
		},
		{
			"stateMutability": "payable",
			"type": "receive"
		}
	],
	"bytecode": "0x60c060405260036004806101000a81548161ffff021916908361ffff1602179055506001600460066101000a81548163ffffffff021916908363ffffffff16021790555073779877a7b0d9e8603169ddbd7836e478b4624789600560006101000a81548173ffffffffffffffffffffffffffffffffffffffff021916908373ffffffffffffffffffffffffffffffffffffffff16021790555073ab18414cd93297b0d12ac29e63ca20f515b3db46600660006101000a81548173ffffffffffffffffffffffffffffffffffffffff021916908373ffffffffffffffffffffffffffffffffffffffff16021790555033806000600560009054906101000a900473ffffffffffffffffffffffffffffffffffffffff16600660009054906101000a900473ffffffffffffffffffffffffffffffffffffffff168173ffffffffffffffffffffffffffffffffffffffff1660808173ffffffffffffffffffffffffffffffffffffffff16815250508073ffffffffffffffffffffffffffffffffffffffff1660a08173ffffffffffffffffffffffffffffffffffffffff16815250505050600073ffffffffffffffffffffffffffffffffffffffff168273ffffffffffffffffffffffffffffffffffffffff160362000213576040517f08c379a00000000000000000000000000000000000000000000000000000000081526004016200020a9062000433565b60405180910390fd5b816000806101000a81548173ffffffffffffffffffffffffffffffffffffffff021916908373ffffffffffffffffffffffffffffffffffffffff160217905550600073ffffffffffffffffffffffffffffffffffffffff168173ffffffffffffffffffffffffffffffffffffffff16146200029a576200029981620002a360201b60201c565b5b505050620004c7565b3373ffffffffffffffffffffffffffffffffffffffff168173ffffffffffffffffffffffffffffffffffffffff160362000314576040517f08c379a00000000000000000000000000000000000000000000000000000000081526004016200030b90620004a5565b60405180910390fd5b80600160006101000a81548173ffffffffffffffffffffffffffffffffffffffff021916908373ffffffffffffffffffffffffffffffffffffffff1602179055508073ffffffffffffffffffffffffffffffffffffffff1660008054906101000a900473ffffffffffffffffffffffffffffffffffffffff1673ffffffffffffffffffffffffffffffffffffffff167fed8889f560326eb138920d842192f0eb3dd22b4f139c87a2c57538e05bae127860405160405180910390a350565b600082825260208201905092915050565b7f43616e6e6f7420736574206f776e657220746f207a65726f0000000000000000600082015250565b60006200041b601883620003d2565b91506200042882620003e3565b602082019050919050565b600060208201905081810360008301526200044e816200040c565b9050919050565b7f43616e6e6f74207472616e7366657220746f2073656c66000000000000000000600082015250565b60006200048d601783620003d2565b91506200049a8262000455565b602082019050919050565b60006020820190508181036000830152620004c0816200047e565b9050919050565b60805160a051613c68620005096000396000818161060401528181611d46015281816127ad015281816127ce01526128ee015260006127710152613c686000f3fe60806040526004361061014f5760003560e01c80638dc654a2116100b6578063d8a4676f1161006f578063d8a4676f1461048d578063e3358c8d146104cc578063e958962b14610509578063f2fde38b14610525578063f74f36551461054e578063fc2a88c31461058b57610156565b80638dc654a214610392578063a168fa89146103a9578063a4eb718c146103e7578063b451cecc14610410578063c5f035871461044d578063c690908a1461046457610156565b8063748538d911610108578063748538d914610269578063772a9afc146102a657806379ba5097146102ea5780637c169989146103015780638796ba8c1461032a5780638da5cb5b1461036757610156565b8063149cb4a91461015b5780631fe543e31461018457806333c3a05a146101ad57806349df728c146101d85780634d09c61e14610201578063718c49d51461022a57610156565b3661015657005b600080fd5b34801561016757600080fd5b50610182600480360381019061017d9190612aeb565b6105b6565b005b34801561019057600080fd5b506101ab60048036038101906101a69190612ca7565b610602565b005b3480156101b957600080fd5b506101c261069e565b6040516101cf9190612d12565b60405180910390f35b3480156101e457600080fd5b506101ff60048036038101906101fa9190612aeb565b6106c8565b005b34801561020d57600080fd5b5061022860048036038101906102239190612aeb565b610850565b005b34801561023657600080fd5b50610251600480360381019061024c9190612d2d565b61089c565b60405161026093929190612d69565b60405180910390f35b34801561027557600080fd5b50610290600480360381019061028b9190612aeb565b6108e6565b60405161029d9190612dbb565b60405180910390f35b3480156102b257600080fd5b506102cd60048036038101906102c89190612aeb565b61093c565b6040516102e1989796959493929190612dd6565b60405180910390f35b3480156102f657600080fd5b506102ff6109fe565b005b34801561030d57600080fd5b5061032860048036038101906103239190612aeb565b610b93565b005b34801561033657600080fd5b50610351600480360381019061034c9190612d2d565b610c41565b60405161035e9190612e54565b60405180910390f35b34801561037357600080fd5b5061037c610c65565b6040516103899190612d12565b60405180910390f35b34801561039e57600080fd5b506103a7610c8e565b005b3480156103b557600080fd5b506103d060048036038101906103cb9190612d2d565b610df6565b6040516103de929190612e6f565b60405180910390f35b3480156103f357600080fd5b5061040e60048036038101906104099190612ed4565b610e27565b005b34801561041c57600080fd5b5061043760048036038101906104329190612aeb565b610e53565b6040516104449190612dbb565b60405180910390f35b34801561045957600080fd5b50610462610e73565b005b34801561047057600080fd5b5061048b60048036038101906104869190612aeb565b610ef4565b005b34801561049957600080fd5b506104b460048036038101906104af9190612d2d565b610f90565b6040516104c393929190612fbf565b60405180910390f35b3480156104d857600080fd5b506104f360048036038101906104ee9190612aeb565b6110aa565b60405161050091906130bd565b60405180910390f35b610523600480360381019061051e9190613105565b61125a565b005b34801561053157600080fd5b5061054c60048036038101906105479190612aeb565b6119cc565b005b34801561055a57600080fd5b5061057560048036038101906105709190613180565b6119e0565b6040516105829190612e54565b60405180910390f35b34801561059757600080fd5b506105a0611a02565b6040516105ad9190612e54565b60405180910390f35b6105be611a08565b806004600a6101000a81548173ffffffffffffffffffffffffffffffffffffffff021916908373ffffffffffffffffffffffffffffffffffffffff16021790555050565b7f000000000000000000000000000000000000000000000000000000000000000073ffffffffffffffffffffffffffffffffffffffff163373ffffffffffffffffffffffffffffffffffffffff1614610690576040517f08c379a00000000000000000000000000000000000000000000000000000000081526004016106879061321d565b60405180910390fd5b61069a8282611a98565b5050565b60006004600a9054906101000a900473ffffffffffffffffffffffffffffffffffffffff16905090565b6106d0611a08565b80600b60006101000a81548173ffffffffffffffffffffffffffffffffffffffff021916908373ffffffffffffffffffffffffffffffffffffffff160217905550600b60009054906101000a900473ffffffffffffffffffffffffffffffffffffffff1673ffffffffffffffffffffffffffffffffffffffff1663a9059cbb33600b60009054906101000a900473ffffffffffffffffffffffffffffffffffffffff1673ffffffffffffffffffffffffffffffffffffffff166370a08231306040518263ffffffff1660e01b81526004016107ab9190612d12565b602060405180830381865afa1580156107c8573d6000803e3d6000fd5b505050506040513d601f19601f820116820180604052508101906107ec9190613252565b6040518363ffffffff1660e01b815260040161080992919061327f565b6020604051808303816000875af1158015610828573d6000803e3d6000fd5b505050506040513d601f19601f8201168201806040525081019061084c91906132bd565b5050565b610858611a08565b80600c60006101000a81548173ffffffffffffffffffffffffffffffffffffffff021916908373ffffffffffffffffffffffffffffffffffffffff16021790555050565b60086020528060005260406000206000915090508060000154908060010154908060020160009054906101000a900473ffffffffffffffffffffffffffffffffffffffff16905083565b6000600960008373ffffffffffffffffffffffffffffffffffffffff1673ffffffffffffffffffffffffffffffffffffffff16815260200190815260200160002060009054906101000a900460ff169050919050565b60076020528060005260406000206000915090508060000154908060010154908060020154908060030160009054906101000a900473ffffffffffffffffffffffffffffffffffffffff16908060030160149054906101000a900460ff16908060040160009054906101000a900473ffffffffffffffffffffffffffffffffffffffff16908060050160009054906101000a900473ffffffffffffffffffffffffffffffffffffffff16908060050160149054906101000a900460ff16905088565b600160009054906101000a900473ffffffffffffffffffffffffffffffffffffffff1673ffffffffffffffffffffffffffffffffffffffff163373ffffffffffffffffffffffffffffffffffffffff1614610a8e576040517f08c379a0000000000000000000000000000000000000000000000000000000008152600401610a8590613336565b60405180910390fd5b60008060009054906101000a900473ffffffffffffffffffffffffffffffffffffffff169050336000806101000a81548173ffffffffffffffffffffffffffffffffffffffff021916908373ffffffffffffffffffffffffffffffffffffffff1602179055506000600160006101000a81548173ffffffffffffffffffffffffffffffffffffffff021916908373ffffffffffffffffffffffffffffffffffffffff1602179055503373ffffffffffffffffffffffffffffffffffffffff168173ffffffffffffffffffffffffffffffffffffffff167f8be0079c531659141344cd1fd0a4f28419497f9722a3daafe3b4186f6b6457e060405160405180910390a350565b610b9b611a08565b6000600760008373ffffffffffffffffffffffffffffffffffffffff1673ffffffffffffffffffffffffffffffffffffffff16815260200190815260200160002060030160146101000a81548160ff0219169083151502179055506000600760008373ffffffffffffffffffffffffffffffffffffffff1673ffffffffffffffffffffffffffffffffffffffff1681526020019081526020016000206001018190555050565b60028181548110610c5157600080fd5b906000526020600020016000915090505481565b60008060009054906101000a900473ffffffffffffffffffffffffffffffffffffffff16905090565b610c96611a08565b6000600560009054906101000a900473ffffffffffffffffffffffffffffffffffffffff1690508073ffffffffffffffffffffffffffffffffffffffff1663a9059cbb338373ffffffffffffffffffffffffffffffffffffffff166370a08231306040518263ffffffff1660e01b8152600401610d139190612d12565b602060405180830381865afa158015610d30573d6000803e3d6000fd5b505050506040513d601f19601f82011682018060405250810190610d549190613252565b6040518363ffffffff1660e01b8152600401610d7192919061327f565b6020604051808303816000875af1158015610d90573d6000803e3d6000fd5b505050506040513d601f19601f82011682018060405250810190610db491906132bd565b610df3576040517f08c379a0000000000000000000000000000000000000000000000000000000008152600401610dea906133a2565b60405180910390fd5b50565b600a6020528060005260406000206000915090508060000154908060010160009054906101000a900460ff16905082565b610e2f611a08565b80600460006101000a81548163ffffffff021916908363ffffffff16021790555050565b60096020528060005260406000206000915054906101000a900460ff1681565b610e7b611a08565b60003373ffffffffffffffffffffffffffffffffffffffff1647604051610ea1906133f3565b60006040518083038185875af1925050503d8060008114610ede576040519150601f19603f3d011682016040523d82523d6000602084013e610ee3565b606091505b5050905080610ef157600080fd5b50565b610efc611a08565b600073ffffffffffffffffffffffffffffffffffffffff168173ffffffffffffffffffffffffffffffffffffffff1603610f3557600080fd5b6001600960008373ffffffffffffffffffffffffffffffffffffffff1673ffffffffffffffffffffffffffffffffffffffff16815260200190815260200160002060006101000a81548160ff02191690831515021790555050565b60008060606000600a60008681526020019081526020016000206000015411610fee576040517f08c379a0000000000000000000000000000000000000000000000000000000008152600401610fe590613454565b60405180910390fd5b6000600a6000868152602001908152602001600020604051806060016040529081600082015481526020016001820160009054906101000a900460ff161515151581526020016002820180548060200260200160405190810160405280929190818152602001828054801561108257602002820191906000526020600020905b81548152602001906001019080831161106e575b5050505050815250509050806000015181602001518260400151935093509350509193909250565b6110b2612984565b600760008373ffffffffffffffffffffffffffffffffffffffff1673ffffffffffffffffffffffffffffffffffffffff168152602001908152602001600020604051806101000160405290816000820154815260200160018201548152602001600282015481526020016003820160009054906101000a900473ffffffffffffffffffffffffffffffffffffffff1673ffffffffffffffffffffffffffffffffffffffff1673ffffffffffffffffffffffffffffffffffffffff1681526020016003820160149054906101000a900460ff161515151581526020016004820160009054906101000a900473ffffffffffffffffffffffffffffffffffffffff1673ffffffffffffffffffffffffffffffffffffffff1673ffffffffffffffffffffffffffffffffffffffff1681526020016005820160009054906101000a900473ffffffffffffffffffffffffffffffffffffffff1673ffffffffffffffffffffffffffffffffffffffff1673ffffffffffffffffffffffffffffffffffffffff1681526020016005820160149054906101000a900460ff1615151515815250509050919050565b600760003373ffffffffffffffffffffffffffffffffffffffff1673ffffffffffffffffffffffffffffffffffffffff16815260200190815260200160002060030160149054906101000a900460ff16156112ea576040517f08c379a00000000000000000000000000000000000000000000000000000000081526004016112e1906134e6565b60405180910390fd5b60008514806112f95750600185145b611338576040517f08c379a000000000000000000000000000000000000000000000000000000000815260040161132f90613578565b60405180910390fd5b6000821161137b576040517f08c379a0000000000000000000000000000000000000000000000000000000008152600401611372906135e4565b60405180910390fd5b8061163257600960008573ffffffffffffffffffffffffffffffffffffffff1673ffffffffffffffffffffffffffffffffffffffff16815260200190815260200160002060009054906101000a900460ff1661140c576040517f08c379a000000000000000000000000000000000000000000000000000000000815260040161140390613676565b60405180910390fd5b600261141785611c12565b61142191906136f4565b821115611463576040517f08c379a000000000000000000000000000000000000000000000000000000000815260040161145a90613797565b60405180910390fd5b83600b60006101000a81548173ffffffffffffffffffffffffffffffffffffffff021916908373ffffffffffffffffffffffffffffffffffffffff1602179055506000600b60009054906101000a900473ffffffffffffffffffffffffffffffffffffffff1673ffffffffffffffffffffffffffffffffffffffff1663dd62ed3e33306040518363ffffffff1660e01b81526004016115039291906137b7565b602060405180830381865afa158015611520573d6000803e3d6000fd5b505050506040513d601f19601f820116820180604052508101906115449190613252565b905082811015611589576040517f08c379a00000000000000000000000000000000000000000000000000000000081526004016115809061382c565b60405180910390fd5b600b60009054906101000a900473ffffffffffffffffffffffffffffffffffffffff1673ffffffffffffffffffffffffffffffffffffffff166323b872dd3330866040518463ffffffff1660e01b81526004016115e89392919061384c565b6020604051808303816000875af1158015611607573d6000803e3d6000fd5b505050506040513d601f19601f8201168201806040525081019061162b91906132bd565b5050611682565b60024761163f91906136f4565b341115611681576040517f08c379a0000000000000000000000000000000000000000000000000000000008152600401611678906138cf565b60405180910390fd5b5b33600760003373ffffffffffffffffffffffffffffffffffffffff1673ffffffffffffffffffffffffffffffffffffffff16815260200190815260200160002060030160006101000a81548173ffffffffffffffffffffffffffffffffffffffff021916908373ffffffffffffffffffffffffffffffffffffffff16021790555084600760003373ffffffffffffffffffffffffffffffffffffffff1673ffffffffffffffffffffffffffffffffffffffff168152602001908152602001600020600201819055506001600760003373ffffffffffffffffffffffffffffffffffffffff1673ffffffffffffffffffffffffffffffffffffffff16815260200190815260200160002060030160146101000a81548160ff02191690831515021790555081600760003373ffffffffffffffffffffffffffffffffffffffff1673ffffffffffffffffffffffffffffffffffffffff1681526020019081526020016000206001018190555083600760003373ffffffffffffffffffffffffffffffffffffffff1673ffffffffffffffffffffffffffffffffffffffff16815260200190815260200160002060050160006101000a81548173ffffffffffffffffffffffffffffffffffffffff021916908373ffffffffffffffffffffffffffffffffffffffff16021790555082600760003373ffffffffffffffffffffffffffffffffffffffff1673ffffffffffffffffffffffffffffffffffffffff16815260200190815260200160002060040160006101000a81548173ffffffffffffffffffffffffffffffffffffffff021916908373ffffffffffffffffffffffffffffffffffffffff16021790555080600760003373ffffffffffffffffffffffffffffffffffffffff1673ffffffffffffffffffffffffffffffffffffffff16815260200190815260200160002060050160146101000a81548160ff0219169083151502179055506000611952611cf8565b9050336008600083815260200190815260200160002060020160006101000a81548173ffffffffffffffffffffffffffffffffffffffff021916908373ffffffffffffffffffffffffffffffffffffffff160217905550806008600083815260200190815260200160002060000181905550505050505050565b6119d4611a08565b6119dd81611edb565b50565b6000606482846119f091906138ef565b6119fa91906136f4565b905092915050565b60035481565b60008054906101000a900473ffffffffffffffffffffffffffffffffffffffff1673ffffffffffffffffffffffffffffffffffffffff163373ffffffffffffffffffffffffffffffffffffffff1614611a96576040517f08c379a0000000000000000000000000000000000000000000000000000000008152600401611a8d9061397d565b60405180910390fd5b565b6000600a60008481526020019081526020016000206000015411611af1576040517f08c379a0000000000000000000000000000000000000000000000000000000008152600401611ae890613454565b60405180910390fd5b6000806000806001600a600088815260200190815260200160002060010160006101000a81548160ff02191690831515021790555084600a60008881526020019081526020016000206002019080519060200190611b50929190612a0f565b506000600286600081518110611b6957611b6861399d565b5b6020026020010151611b7b91906139cc565b9050806008600089815260200190815260200160002060010181905550611ba28188612007565b80955081965082975083985050505050828573ffffffffffffffffffffffffffffffffffffffff167fecca475f0dff1f06a2a102659c262389e5889e7b60569bc3bd223fca2d534a578685428c8c604051611c019594939291906139fd565b60405180910390a350505050505050565b600081600b60006101000a81548173ffffffffffffffffffffffffffffffffffffffff021916908373ffffffffffffffffffffffffffffffffffffffff160217905550600b60009054906101000a900473ffffffffffffffffffffffffffffffffffffffff1673ffffffffffffffffffffffffffffffffffffffff166370a08231306040518263ffffffff1660e01b8152600401611cb09190612d12565b602060405180830381865afa158015611ccd573d6000803e3d6000fd5b505050506040513d601f19601f82011682018060405250810190611cf19190613252565b9050919050565b6000611d37600460009054906101000a900463ffffffff1660048054906101000a900461ffff16600460069054906101000a900463ffffffff1661276d565b905060405180606001604052807f000000000000000000000000000000000000000000000000000000000000000073ffffffffffffffffffffffffffffffffffffffff16634306d354600460009054906101000a900463ffffffff166040518263ffffffff1660e01b8152600401611daf9190613a66565b602060405180830381865afa158015611dcc573d6000803e3d6000fd5b505050506040513d601f19601f82011682018060405250810190611df09190613252565b8152602001600015158152602001600067ffffffffffffffff811115611e1957611e18612b64565b5b604051908082528060200260200182016040528015611e475781602001602082028036833780820191505090505b50815250600a60008381526020019081526020016000206000820151816000015560208201518160010160006101000a81548160ff0219169083151502179055506040820151816002019080519060200190611ea4929190612a0f565b5090505060028190806001815401808255809150506001900390600052602060002001600090919091909150558060038190555090565b3373ffffffffffffffffffffffffffffffffffffffff168173ffffffffffffffffffffffffffffffffffffffff1603611f49576040517f08c379a0000000000000000000000000000000000000000000000000000000008152600401611f4090613acd565b60405180910390fd5b80600160006101000a81548173ffffffffffffffffffffffffffffffffffffffff021916908373ffffffffffffffffffffffffffffffffffffffff1602179055508073ffffffffffffffffffffffffffffffffffffffff1660008054906101000a900473ffffffffffffffffffffffffffffffffffffffff1673ffffffffffffffffffffffffffffffffffffffff167fed8889f560326eb138920d842192f0eb3dd22b4f139c87a2c57538e05bae127860405160405180910390a350565b60008060008060006008600087815260200190815260200160002060020160009054906101000a900473ffffffffffffffffffffffffffffffffffffffff169050600080600080600760008673ffffffffffffffffffffffffffffffffffffffff1673ffffffffffffffffffffffffffffffffffffffff1681526020019081526020016000206001015490506000600760008773ffffffffffffffffffffffffffffffffffffffff1673ffffffffffffffffffffffffffffffffffffffff16815260200190815260200160002060050160009054906101000a900473ffffffffffffffffffffffffffffffffffffffff16905080600b60006101000a81548173ffffffffffffffffffffffffffffffffffffffff021916908373ffffffffffffffffffffffffffffffffffffffff1602179055508b600760008873ffffffffffffffffffffffffffffffffffffffff1673ffffffffffffffffffffffffffffffffffffffff168152602001908152602001600020600201540361249757600061219183605f6119e0565b9050808361219f9190613aed565b93506002816121ae91906138ef565b94506002846121bd91906138ef565b9350600760008873ffffffffffffffffffffffffffffffffffffffff1673ffffffffffffffffffffffffffffffffffffffff16815260200190815260200160002060050160149054906101000a900460ff1661237c57600b60009054906101000a900473ffffffffffffffffffffffffffffffffffffffff1673ffffffffffffffffffffffffffffffffffffffff1663a9059cbb88876040518363ffffffff1660e01b815260040161227092919061327f565b6020604051808303816000875af115801561228f573d6000803e3d6000fd5b505050506040513d601f19601f820116820180604052508101906122b391906132bd565b50600b60009054906101000a900473ffffffffffffffffffffffffffffffffffffffff1673ffffffffffffffffffffffffffffffffffffffff1663a9059cbb6004600a9054906101000a900473ffffffffffffffffffffffffffffffffffffffff16866040518363ffffffff1660e01b815260040161233392919061327f565b6020604051808303816000875af1158015612352573d6000803e3d6000fd5b505050506040513d601f19601f8201168201806040525081019061237691906132bd565b5061248d565b60008773ffffffffffffffffffffffffffffffffffffffff16866040516123a2906133f3565b60006040518083038185875af1925050503d80600081146123df576040519150601f19603f3d011682016040523d82523d6000602084013e6123e4565b606091505b50509050806123f257600080fd5b60006004600a9054906101000a900473ffffffffffffffffffffffffffffffffffffffff1673ffffffffffffffffffffffffffffffffffffffff168660405161243a906133f3565b60006040518083038185875af1925050503d8060008114612477576040519150601f19603f3d011682016040523d82523d6000602084013e61247c565b606091505b505090508061248a57600080fd5b50505b6001955050612662565b60006124a48360056119e0565b9050600760008873ffffffffffffffffffffffffffffffffffffffff1673ffffffffffffffffffffffffffffffffffffffff16815260200190815260200160002060050160149054906101000a900460ff166125c257600b60009054906101000a900473ffffffffffffffffffffffffffffffffffffffff1673ffffffffffffffffffffffffffffffffffffffff1663a9059cbb6004600a9054906101000a900473ffffffffffffffffffffffffffffffffffffffff16836040518363ffffffff1660e01b815260040161257992919061327f565b6020604051808303816000875af1158015612598573d6000803e3d6000fd5b505050506040513d601f19601f820116820180604052508101906125bc91906132bd565b5061265c565b60006004600a9054906101000a900473ffffffffffffffffffffffffffffffffffffffff1673ffffffffffffffffffffffffffffffffffffffff168260405161260a906133f3565b60006040518083038185875af1925050503d8060008114612647576040519150601f19603f3d011682016040523d82523d6000602084013e61264c565b606091505b505090508061265a57600080fd5b505b60009550505b6000600760008873ffffffffffffffffffffffffffffffffffffffff1673ffffffffffffffffffffffffffffffffffffffff168152602001908152602001600020600101819055506000600760008873ffffffffffffffffffffffffffffffffffffffff1673ffffffffffffffffffffffffffffffffffffffff16815260200190815260200160002060030160146101000a81548160ff021916908315150217905550600860008c815260200190815260200160002060008082016000905560018201600090556002820160006101000a81549073ffffffffffffffffffffffffffffffffffffffff0219169055505085858584995099509950995050505050505092959194509250565b60007f000000000000000000000000000000000000000000000000000000000000000073ffffffffffffffffffffffffffffffffffffffff16634000aea07f00000000000000000000000000000000000000000000000000000000000000007f000000000000000000000000000000000000000000000000000000000000000073ffffffffffffffffffffffffffffffffffffffff16634306d354886040518263ffffffff1660e01b81526004016128259190613a66565b602060405180830381865afa158015612842573d6000803e3d6000fd5b505050506040513d601f19601f820116820180604052508101906128669190613252565b87878760405160200161287b93929190613b3e565b6040516020818303038152906040526040518463ffffffff1660e01b81526004016128a893929190613bf4565b6020604051808303816000875af11580156128c7573d6000803e3d6000fd5b505050506040513d601f19601f820116820180604052508101906128eb91906132bd565b507f000000000000000000000000000000000000000000000000000000000000000073ffffffffffffffffffffffffffffffffffffffff1663fc2a88c36040518163ffffffff1660e01b8152600401602060405180830381865afa158015612957573d6000803e3d6000fd5b505050506040513d601f19601f8201168201806040525081019061297b9190613252565b90509392505050565b604051806101000160405280600081526020016000815260200160008152602001600073ffffffffffffffffffffffffffffffffffffffff168152602001600015158152602001600073ffffffffffffffffffffffffffffffffffffffff168152602001600073ffffffffffffffffffffffffffffffffffffffff1681526020016000151581525090565b828054828255906000526020600020908101928215612a4b579160200282015b82811115612a4a578251825591602001919060010190612a2f565b5b509050612a589190612a5c565b5090565b5b80821115612a75576000816000905550600101612a5d565b5090565b6000604051905090565b600080fd5b600080fd5b600073ffffffffffffffffffffffffffffffffffffffff82169050919050565b6000612ab882612a8d565b9050919050565b612ac881612aad565b8114612ad357600080fd5b50565b600081359050612ae581612abf565b92915050565b600060208284031215612b0157612b00612a83565b5b6000612b0f84828501612ad6565b91505092915050565b6000819050919050565b612b2b81612b18565b8114612b3657600080fd5b50565b600081359050612b4881612b22565b92915050565b600080fd5b6000601f19601f8301169050919050565b7f4e487b7100000000000000000000000000000000000000000000000000000000600052604160045260246000fd5b612b9c82612b53565b810181811067ffffffffffffffff82111715612bbb57612bba612b64565b5b80604052505050565b6000612bce612a79565b9050612bda8282612b93565b919050565b600067ffffffffffffffff821115612bfa57612bf9612b64565b5b602082029050602081019050919050565b600080fd5b6000612c23612c1e84612bdf565b612bc4565b90508083825260208201905060208402830185811115612c4657612c45612c0b565b5b835b81811015612c6f5780612c5b8882612b39565b845260208401935050602081019050612c48565b5050509392505050565b600082601f830112612c8e57612c8d612b4e565b5b8135612c9e848260208601612c10565b91505092915050565b60008060408385031215612cbe57612cbd612a83565b5b6000612ccc85828601612b39565b925050602083013567ffffffffffffffff811115612ced57612cec612a88565b5b612cf985828601612c79565b9150509250929050565b612d0c81612aad565b82525050565b6000602082019050612d276000830184612d03565b92915050565b600060208284031215612d4357612d42612a83565b5b6000612d5184828501612b39565b91505092915050565b612d6381612b18565b82525050565b6000606082019050612d7e6000830186612d5a565b612d8b6020830185612d5a565b612d986040830184612d03565b949350505050565b60008115159050919050565b612db581612da0565b82525050565b6000602082019050612dd06000830184612dac565b92915050565b600061010082019050612dec600083018b612d5a565b612df9602083018a612d5a565b612e066040830189612d5a565b612e136060830188612d03565b612e206080830187612dac565b612e2d60a0830186612d03565b612e3a60c0830185612d03565b612e4760e0830184612dac565b9998505050505050505050565b6000602082019050612e696000830184612d5a565b92915050565b6000604082019050612e846000830185612d5a565b612e916020830184612dac565b9392505050565b600063ffffffff82169050919050565b612eb181612e98565b8114612ebc57600080fd5b50565b600081359050612ece81612ea8565b92915050565b600060208284031215612eea57612ee9612a83565b5b6000612ef884828501612ebf565b91505092915050565b600081519050919050565b600082825260208201905092915050565b6000819050602082019050919050565b612f3681612b18565b82525050565b6000612f488383612f2d565b60208301905092915050565b6000602082019050919050565b6000612f6c82612f01565b612f768185612f0c565b9350612f8183612f1d565b8060005b83811015612fb2578151612f998882612f3c565b9750612fa483612f54565b925050600181019050612f85565b5085935050505092915050565b6000606082019050612fd46000830186612d5a565b612fe16020830185612dac565b8181036040830152612ff38184612f61565b9050949350505050565b61300681612aad565b82525050565b61301581612da0565b82525050565b610100820160008201516130326000850182612f2d565b5060208201516130456020850182612f2d565b5060408201516130586040850182612f2d565b50606082015161306b6060850182612ffd565b50608082015161307e608085018261300c565b5060a082015161309160a0850182612ffd565b5060c08201516130a460c0850182612ffd565b5060e08201516130b760e085018261300c565b50505050565b6000610100820190506130d3600083018461301b565b92915050565b6130e281612da0565b81146130ed57600080fd5b50565b6000813590506130ff816130d9565b92915050565b600080600080600060a0868803121561312157613120612a83565b5b600061312f88828901612b39565b955050602061314088828901612ad6565b945050604061315188828901612ad6565b935050606061316288828901612b39565b9250506080613173888289016130f0565b9150509295509295909350565b6000806040838503121561319757613196612a83565b5b60006131a585828601612b39565b92505060206131b685828601612b39565b9150509250929050565b600082825260208201905092915050565b7f6f6e6c792056524620563220777261707065722063616e2066756c66696c6c00600082015250565b6000613207601f836131c0565b9150613212826131d1565b602082019050919050565b60006020820190508181036000830152613236816131fa565b9050919050565b60008151905061324c81612b22565b92915050565b60006020828403121561326857613267612a83565b5b60006132768482850161323d565b91505092915050565b60006040820190506132946000830185612d03565b6132a16020830184612d5a565b9392505050565b6000815190506132b7816130d9565b92915050565b6000602082840312156132d3576132d2612a83565b5b60006132e1848285016132a8565b91505092915050565b7f4d7573742062652070726f706f736564206f776e657200000000000000000000600082015250565b60006133206016836131c0565b915061332b826132ea565b602082019050919050565b6000602082019050818103600083015261334f81613313565b9050919050565b7f556e61626c6520746f207472616e736665720000000000000000000000000000600082015250565b600061338c6012836131c0565b915061339782613356565b602082019050919050565b600060208201905081810360008301526133bb8161337f565b9050919050565b600081905092915050565b50565b60006133dd6000836133c2565b91506133e8826133cd565b600082019050919050565b60006133fe826133d0565b9150819050919050565b7f72657175657374206e6f7420666f756e64000000000000000000000000000000600082015250565b600061343e6011836131c0565b915061344982613408565b602082019050919050565b6000602082019050818103600083015261346d81613431565b9050919050565b7f4372617a79466c69703a204164647265737320616c726561647920617320616e60008201527f20416374697665204265742063757272656e746c79206f6e676f696e67000000602082015250565b60006134d0603d836131c0565b91506134db82613474565b604082019050919050565b600060208201905081810360008301526134ff816134c3565b9050919050565b7f4372617a79466c69703a20496e76616c6964204265742063686f69636520707260008201527f6f76696465640000000000000000000000000000000000000000000000000000602082015250565b60006135626026836131c0565b915061356d82613506565b604082019050919050565b6000602082019050818103600083015261359181613555565b9050919050565b7f41646420616d6f756e7420746f20626574000000000000000000000000000000600082015250565b60006135ce6011836131c0565b91506135d982613598565b602082019050919050565b600060208201905081810360008301526135fd816135c1565b9050919050565b7f4372617a79466c69703a20546f6b656e2063686f696365206973206e6f74206560008201527f6e61626c65640000000000000000000000000000000000000000000000000000602082015250565b60006136606026836131c0565b915061366b82613604565b604082019050919050565b6000602082019050818103600083015261368f81613653565b9050919050565b7f4e487b7100000000000000000000000000000000000000000000000000000000600052601260045260246000fd5b7f4e487b7100000000000000000000000000000000000000000000000000000000600052601160045260246000fd5b60006136ff82612b18565b915061370a83612b18565b92508261371a57613719613696565b5b828204905092915050565b7f4372617a79466c69703a20496e73756666696369656e74205072697a6520506f60008201527f6f6c2042616c616e636520666f7220746869732042657420416d6f756e740000602082015250565b6000613781603e836131c0565b915061378c82613725565b604082019050919050565b600060208201905081810360008301526137b081613774565b9050919050565b60006040820190506137cc6000830185612d03565b6137d96020830184612d03565b9392505050565b7f496e73756666696369656e74207370656e64696e6720616d6f756e7400000000600082015250565b6000613816601c836131c0565b9150613821826137e0565b602082019050919050565b6000602082019050818103600083015261384581613809565b9050919050565b60006060820190506138616000830186612d03565b61386e6020830185612d03565b61387b6040830184612d5a565b949350505050565b7f496e73756666696369656e740000000000000000000000000000000000000000600082015250565b60006138b9600c836131c0565b91506138c482613883565b602082019050919050565b600060208201905081810360008301526138e8816138ac565b9050919050565b60006138fa82612b18565b915061390583612b18565b925082820261391381612b18565b9150828204841483151761392a576139296136c5565b5b5092915050565b7f4f6e6c792063616c6c61626c65206279206f776e657200000000000000000000600082015250565b60006139676016836131c0565b915061397282613931565b602082019050919050565b600060208201905081810360008301526139968161395a565b9050919050565b7f4e487b7100000000000000000000000000000000000000000000000000000000600052603260045260246000fd5b60006139d782612b18565b91506139e283612b18565b9250826139f2576139f1613696565b5b828206905092915050565b600060a082019050613a126000830188612dac565b613a1f6020830187612d5a565b613a2c6040830186612d5a565b613a396060830185612d5a565b8181036080830152613a4b8184612f61565b90509695505050505050565b613a6081612e98565b82525050565b6000602082019050613a7b6000830184613a57565b92915050565b7f43616e6e6f74207472616e7366657220746f2073656c66000000000000000000600082015250565b6000613ab76017836131c0565b9150613ac282613a81565b602082019050919050565b60006020820190508181036000830152613ae681613aaa565b9050919050565b6000613af882612b18565b9150613b0383612b18565b9250828203905081811115613b1b57613b1a6136c5565b5b92915050565b600061ffff82169050919050565b613b3881613b21565b82525050565b6000606082019050613b536000830186613a57565b613b606020830185613b2f565b613b6d6040830184613a57565b949350505050565b600081519050919050565b600082825260208201905092915050565b60005b83811015613baf578082015181840152602081019050613b94565b60008484015250505050565b6000613bc682613b75565b613bd08185613b80565b9350613be0818560208601613b91565b613be981612b53565b840191505092915050565b6000606082019050613c096000830186612d03565b613c166020830185612d5a565b8181036040830152613c288184613bbb565b905094935050505056fea26469706673582212208c2ff25037a8055bd68547e717541e0512de95d0c1c46b9aac862bab6234888464736f6c63430008120033",
	"linkReferences": {},
	"deployedLinkReferences": {}
}